{
  "_format": "hh-sol-artifact-1",
  "contractName": "TUTToken",
  "sourceName": "contracts/TUTToken.sol",
  "abi": [
    {
      "inputs": [],
      "stateMutability": "nonpayable",
      "type": "constructor"
    },
    {
      "inputs": [],
      "name": "AmountBelowMinimum",
      "type": "error"
    },
    {
      "inputs": [
        {
          "internalType": "uint256",
          "name": "increasedSupply",
          "type": "uint256"
        },
        {
          "internalType": "uint256",
          "name": "cap",
          "type": "uint256"
        }
      ],
      "name": "ERC20ExceededCap",
      "type": "error"
    },
    {
      "inputs": [
        {
          "internalType": "address",
          "name": "spender",
          "type": "address"
        },
        {
          "internalType": "uint256",
          "name": "allowance",
          "type": "uint256"
        },
        {
          "internalType": "uint256",
          "name": "needed",
          "type": "uint256"
        }
      ],
      "name": "ERC20InsufficientAllowance",
      "type": "error"
    },
    {
      "inputs": [
        {
          "internalType": "address",
          "name": "sender",
          "type": "address"
        },
        {
          "internalType": "uint256",
          "name": "balance",
          "type": "uint256"
        },
        {
          "internalType": "uint256",
          "name": "needed",
          "type": "uint256"
        }
      ],
      "name": "ERC20InsufficientBalance",
      "type": "error"
    },
    {
      "inputs": [
        {
          "internalType": "address",
          "name": "approver",
          "type": "address"
        }
      ],
      "name": "ERC20InvalidApprover",
      "type": "error"
    },
    {
      "inputs": [
        {
          "internalType": "uint256",
          "name": "cap",
          "type": "uint256"
        }
      ],
      "name": "ERC20InvalidCap",
      "type": "error"
    },
    {
      "inputs": [
        {
          "internalType": "address",
          "name": "receiver",
          "type": "address"
        }
      ],
      "name": "ERC20InvalidReceiver",
      "type": "error"
    },
    {
      "inputs": [
        {
          "internalType": "address",
          "name": "sender",
          "type": "address"
        }
      ],
      "name": "ERC20InvalidSender",
      "type": "error"
    },
    {
      "inputs": [
        {
          "internalType": "address",
          "name": "spender",
          "type": "address"
        }
      ],
      "name": "ERC20InvalidSpender",
      "type": "error"
    },
    {
      "inputs": [],
      "name": "InsufficientBalance",
      "type": "error"
    },
    {
      "inputs": [],
      "name": "NotAuthorized",
      "type": "error"
    },
    {
      "inputs": [
        {
          "internalType": "address",
          "name": "owner",
          "type": "address"
        }
      ],
      "name": "OwnableInvalidOwner",
      "type": "error"
    },
    {
      "inputs": [
        {
          "internalType": "address",
          "name": "account",
          "type": "address"
        }
      ],
      "name": "OwnableUnauthorizedAccount",
      "type": "error"
    },
    {
      "anonymous": false,
      "inputs": [
        {
          "indexed": true,
          "internalType": "address",
          "name": "owner",
          "type": "address"
        },
        {
          "indexed": true,
          "internalType": "address",
          "name": "spender",
          "type": "address"
        },
        {
          "indexed": false,
          "internalType": "uint256",
          "name": "value",
          "type": "uint256"
        }
      ],
      "name": "Approval",
      "type": "event"
    },
    {
      "anonymous": false,
      "inputs": [
        {
          "indexed": true,
          "internalType": "address",
          "name": "previousOwner",
          "type": "address"
        },
        {
          "indexed": true,
          "internalType": "address",
          "name": "newOwner",
          "type": "address"
        }
      ],
      "name": "OwnershipTransferred",
      "type": "event"
    },
    {
      "anonymous": false,
      "inputs": [
        {
          "indexed": true,
          "internalType": "address",
          "name": "from",
          "type": "address"
        },
        {
          "indexed": false,
          "internalType": "uint256",
          "name": "amount",
          "type": "uint256"
        },
        {
          "indexed": false,
          "internalType": "uint256",
          "name": "reason",
          "type": "uint256"
        }
      ],
      "name": "Redeemed",
      "type": "event"
    },
    {
      "anonymous": false,
      "inputs": [
        {
          "indexed": true,
          "internalType": "address",
          "name": "to",
          "type": "address"
        },
        {
          "indexed": false,
          "internalType": "uint256",
          "name": "amount",
          "type": "uint256"
        },
        {
          "indexed": false,
          "internalType": "uint256",
          "name": "reason",
          "type": "uint256"
        }
      ],
      "name": "Rewarded",
      "type": "event"
    },
    {
      "anonymous": false,
      "inputs": [
        {
          "indexed": true,
          "internalType": "address",
          "name": "from",
          "type": "address"
        },
        {
          "indexed": true,
          "internalType": "address",
          "name": "to",
          "type": "address"
        },
        {
          "indexed": false,
          "internalType": "uint256",
          "name": "value",
          "type": "uint256"
        }
      ],
      "name": "Transfer",
      "type": "event"
    },
    {
      "inputs": [],
      "name": "MAX_SUPPLY",
      "outputs": [
        {
          "internalType": "uint256",
          "name": "",
          "type": "uint256"
        }
      ],
      "stateMutability": "view",
      "type": "function"
    },
    {
      "inputs": [],
      "name": "MIN_REDEEM_AMOUNT",
      "outputs": [
        {
          "internalType": "uint256",
          "name": "",
          "type": "uint256"
        }
      ],
      "stateMutability": "view",
      "type": "function"
    },
    {
      "inputs": [],
      "name": "REASON_ACHIEVEMENT",
      "outputs": [
        {
          "internalType": "uint256",
          "name": "",
          "type": "uint256"
        }
      ],
      "stateMutability": "view",
      "type": "function"
    },
    {
      "inputs": [],
      "name": "REASON_INITIAL_REWARD",
      "outputs": [
        {
          "internalType": "uint256",
          "name": "",
          "type": "uint256"
        }
      ],
      "stateMutability": "view",
      "type": "function"
    },
    {
      "inputs": [],
      "name": "REASON_PLANT_TREE",
      "outputs": [
        {
          "internalType": "uint256",
          "name": "",
          "type": "uint256"
        }
      ],
      "stateMutability": "view",
      "type": "function"
    },
    {
      "inputs": [],
      "name": "REASON_REDEMPTION",
      "outputs": [
        {
          "internalType": "uint256",
          "name": "",
          "type": "uint256"
        }
      ],
      "stateMutability": "view",
      "type": "function"
    },
    {
      "inputs": [],
      "name": "REASON_REFERRAL",
      "outputs": [
        {
          "internalType": "uint256",
          "name": "",
          "type": "uint256"
        }
      ],
      "stateMutability": "view",
      "type": "function"
    },
    {
      "inputs": [],
      "name": "REASON_TREE_ADOPTION",
      "outputs": [
        {
          "internalType": "uint256",
          "name": "",
          "type": "uint256"
        }
      ],
      "stateMutability": "view",
      "type": "function"
    },
    {
      "inputs": [
        {
          "internalType": "address",
          "name": "contractAddress",
          "type": "address"
        }
      ],
      "name": "addAuthorizedContract",
      "outputs": [],
      "stateMutability": "nonpayable",
      "type": "function"
    },
    {
      "inputs": [
        {
          "internalType": "address",
          "name": "owner",
          "type": "address"
        },
        {
          "internalType": "address",
          "name": "spender",
          "type": "address"
        }
      ],
      "name": "allowance",
      "outputs": [
        {
          "internalType": "uint256",
          "name": "",
          "type": "uint256"
        }
      ],
      "stateMutability": "view",
      "type": "function"
    },
    {
      "inputs": [
        {
          "internalType": "address",
          "name": "spender",
          "type": "address"
        },
        {
          "internalType": "uint256",
          "name": "value",
          "type": "uint256"
        }
      ],
      "name": "approve",
      "outputs": [
        {
          "internalType": "bool",
          "name": "",
          "type": "bool"
        }
      ],
      "stateMutability": "nonpayable",
      "type": "function"
    },
    {
      "inputs": [
        {
          "internalType": "address",
          "name": "",
          "type": "address"
        }
      ],
      "name": "authorizedContracts",
      "outputs": [
        {
          "internalType": "bool",
          "name": "",
          "type": "bool"
        }
      ],
      "stateMutability": "view",
      "type": "function"
    },
    {
      "inputs": [
        {
          "internalType": "address",
          "name": "account",
          "type": "address"
        }
      ],
      "name": "balanceOf",
      "outputs": [
        {
          "internalType": "uint256",
          "name": "",
          "type": "uint256"
        }
      ],
      "stateMutability": "view",
      "type": "function"
    },
    {
      "inputs": [
        {
          "internalType": "address[]",
          "name": "contractAddresses",
          "type": "address[]"
        }
      ],
      "name": "batchAddAuthorizedContracts",
      "outputs": [],
      "stateMutability": "nonpayable",
      "type": "function"
    },
    {
      "inputs": [
        {
          "components": [
            {
              "internalType": "address",
              "name": "recipient",
              "type": "address"
            },
            {
              "internalType": "uint256",
              "name": "amount",
              "type": "uint256"
            },
            {
              "internalType": "uint256",
              "name": "reason",
              "type": "uint256"
            }
          ],
          "internalType": "struct TUTToken.RewardData[]",
          "name": "rewards",
          "type": "tuple[]"
        }
      ],
      "name": "batchReward",
      "outputs": [],
      "stateMutability": "nonpayable",
      "type": "function"
    },
    {
      "inputs": [],
      "name": "cap",
      "outputs": [
        {
          "internalType": "uint256",
          "name": "",
          "type": "uint256"
        }
      ],
      "stateMutability": "view",
      "type": "function"
    },
    {
      "inputs": [],
      "name": "decimals",
      "outputs": [
        {
          "internalType": "uint8",
          "name": "",
          "type": "uint8"
        }
      ],
      "stateMutability": "view",
      "type": "function"
    },
    {
      "inputs": [],
      "name": "name",
      "outputs": [
        {
          "internalType": "string",
          "name": "",
          "type": "string"
        }
      ],
      "stateMutability": "view",
      "type": "function"
    },
    {
      "inputs": [],
      "name": "owner",
      "outputs": [
        {
          "internalType": "address",
          "name": "",
          "type": "address"
        }
      ],
      "stateMutability": "view",
      "type": "function"
    },
    {
      "inputs": [
        {
          "internalType": "uint256",
          "name": "amount",
          "type": "uint256"
        },
        {
          "internalType": "uint256",
          "name": "reason",
          "type": "uint256"
        }
      ],
      "name": "redeem",
      "outputs": [],
      "stateMutability": "nonpayable",
      "type": "function"
    },
    {
      "inputs": [
        {
          "internalType": "address",
          "name": "contractAddress",
          "type": "address"
        }
      ],
      "name": "removeAuthorizedContract",
      "outputs": [],
      "stateMutability": "nonpayable",
      "type": "function"
    },
    {
      "inputs": [],
      "name": "renounceOwnership",
      "outputs": [],
      "stateMutability": "nonpayable",
      "type": "function"
    },
    {
      "inputs": [
        {
          "internalType": "address",
          "name": "recipient",
          "type": "address"
        },
        {
          "internalType": "uint256",
          "name": "amount",
          "type": "uint256"
        },
        {
          "internalType": "uint256",
          "name": "reason",
          "type": "uint256"
        }
      ],
      "name": "reward",
      "outputs": [],
      "stateMutability": "nonpayable",
      "type": "function"
    },
    {
      "inputs": [],
      "name": "symbol",
      "outputs": [
        {
          "internalType": "string",
          "name": "",
          "type": "string"
        }
      ],
      "stateMutability": "view",
      "type": "function"
    },
    {
      "inputs": [],
      "name": "totalSupply",
      "outputs": [
        {
          "internalType": "uint256",
          "name": "",
          "type": "uint256"
        }
      ],
      "stateMutability": "view",
      "type": "function"
    },
    {
      "inputs": [
        {
          "internalType": "address",
          "name": "to",
          "type": "address"
        },
        {
          "internalType": "uint256",
          "name": "value",
          "type": "uint256"
        }
      ],
      "name": "transfer",
      "outputs": [
        {
          "internalType": "bool",
          "name": "",
          "type": "bool"
        }
      ],
      "stateMutability": "nonpayable",
      "type": "function"
    },
    {
      "inputs": [
        {
          "internalType": "address",
          "name": "from",
          "type": "address"
        },
        {
          "internalType": "address",
          "name": "to",
          "type": "address"
        },
        {
          "internalType": "uint256",
          "name": "value",
          "type": "uint256"
        }
      ],
      "name": "transferFrom",
      "outputs": [
        {
          "internalType": "bool",
          "name": "",
          "type": "bool"
        }
      ],
      "stateMutability": "nonpayable",
      "type": "function"
    },
    {
      "inputs": [
        {
          "internalType": "address",
          "name": "newOwner",
          "type": "address"
        }
      ],
      "name": "transferOwnership",
      "outputs": [],
      "stateMutability": "nonpayable",
      "type": "function"
    }
  ],
  "bytecode": "0x60a06040523480156200001157600080fd5b50336a084595161401484a0000006040518060400160405280601581526020017f546f7572617468205574696c69747920546f6b656e00000000000000000000008152506040518060400160405280600381526020017f545554000000000000000000000000000000000000000000000000000000000081525081600390816200009c9190620004d0565b508060049081620000ae9190620004d0565b50505060008103620000fa5760006040517f392e1e27000000000000000000000000000000000000000000000000000000008152600401620000f19190620005fa565b60405180910390fd5b806080818152505050600073ffffffffffffffffffffffffffffffffffffffff168173ffffffffffffffffffffffffffffffffffffffff1603620001785760006040517f1e4fbdf70000000000000000000000000000000000000000000000000000000081526004016200016f91906200065c565b60405180910390fd5b62000189816200019060201b60201c565b5062000679565b6000600560009054906101000a900473ffffffffffffffffffffffffffffffffffffffff16905081600560006101000a81548173ffffffffffffffffffffffffffffffffffffffff021916908373ffffffffffffffffffffffffffffffffffffffff1602179055508173ffffffffffffffffffffffffffffffffffffffff168173ffffffffffffffffffffffffffffffffffffffff167f8be0079c531659141344cd1fd0a4f28419497f9722a3daafe3b4186f6b6457e060405160405180910390a35050565b600081519050919050565b7f4e487b7100000000000000000000000000000000000000000000000000000000600052604160045260246000fd5b7f4e487b7100000000000000000000000000000000000000000000000000000000600052602260045260246000fd5b60006002820490506001821680620002d857607f821691505b602082108103620002ee57620002ed62000290565b5b50919050565b60008190508160005260206000209050919050565b60006020601f8301049050919050565b600082821b905092915050565b600060088302620003587fffffffffffffffffffffffffffffffffffffffffffffffffffffffffffffffff8262000319565b62000364868362000319565b95508019841693508086168417925050509392505050565b6000819050919050565b6000819050919050565b6000620003b1620003ab620003a5846200037c565b62000386565b6200037c565b9050919050565b6000819050919050565b620003cd8362000390565b620003e5620003dc82620003b8565b84845462000326565b825550505050565b600090565b620003fc620003ed565b62000409818484620003c2565b505050565b5b81811015620004315762000425600082620003f2565b6001810190506200040f565b5050565b601f82111562000480576200044a81620002f4565b620004558462000309565b8101602085101562000465578190505b6200047d620004748562000309565b8301826200040e565b50505b505050565b600082821c905092915050565b6000620004a56000198460080262000485565b1980831691505092915050565b6000620004c0838362000492565b9150826002028217905092915050565b620004db8262000256565b67ffffffffffffffff811115620004f757620004f662000261565b5b620005038254620002bf565b6200051082828562000435565b600060209050601f83116001811462000548576000841562000533578287015190505b6200053f8582620004b2565b865550620005af565b601f1984166200055886620002f4565b60005b8281101562000582578489015182556001820191506020850194506020810190506200055b565b86831015620005a257848901516200059e601f89168262000492565b8355505b6001600288020188555050505b505050505050565b6000819050919050565b6000620005e2620005dc620005d684620005b7565b62000386565b6200037c565b9050919050565b620005f481620005c1565b82525050565b6000602082019050620006116000830184620005e9565b92915050565b600073ffffffffffffffffffffffffffffffffffffffff82169050919050565b6000620006448262000617565b9050919050565b620006568162000637565b82525050565b60006020820190506200067360008301846200064b565b92915050565b608051611d3962000695600039600061066f0152611d396000f3fe608060405234801561001057600080fd5b50600436106101c45760003560e01c80637cbc2373116100f9578063aeb4c56411610097578063dd62ed3e11610071578063dd62ed3e146104d5578063e6b165ed14610505578063f2fde38b14610521578063ffa3cfca1461053d576101c4565b8063aeb4c5641461046b578063b339971b14610487578063d5b9221b146104a5576101c4565b806395d89b41116100d357806395d89b41146103e557806398eaa4a7146104035780639abcbbe81461041f578063a9059cbb1461043b576101c4565b80637cbc23731461038d5780637e0d9dca146103a95780638da5cb5b146103c7576101c4565b806332cb6b0c116101665780634a46b811116101405780634a46b811146103195780636743d9301461033557806370a0823114610353578063715018a614610383576101c4565b806332cb6b0c146102bf578063355274ea146102dd57806342cd746b146102fb576101c4565b80631d79a011116101a25780631d79a011146102355780631fd983f51461025357806323b872dd14610271578063313ce567146102a1576101c4565b806306fdde03146101c9578063095ea7b3146101e757806318160ddd14610217575b600080fd5b6101d161055b565b6040516101de9190611748565b60405180910390f35b61020160048036038101906101fc9190611808565b6105ed565b60405161020e9190611863565b60405180910390f35b61021f610610565b60405161022c919061188d565b60405180910390f35b61023d61061a565b60405161024a919061188d565b60405180910390f35b61025b61061f565b604051610268919061188d565b60405180910390f35b61028b600480360381019061028691906118a8565b610624565b6040516102989190611863565b60405180910390f35b6102a9610653565b6040516102b69190611917565b60405180910390f35b6102c761065c565b6040516102d4919061188d565b60405180910390f35b6102e561066b565b6040516102f2919061188d565b60405180910390f35b610303610693565b604051610310919061188d565b60405180910390f35b610333600480360381019061032e9190611932565b6106a0565b005b61033d6107c3565b60405161034a919061188d565b60405180910390f35b61036d60048036038101906103689190611985565b6107c8565b60405161037a919061188d565b60405180910390f35b61038b610810565b005b6103a760048036038101906103a291906119b2565b610824565b005b6103b1610907565b6040516103be919061188d565b60405180910390f35b6103cf61090c565b6040516103dc9190611a01565b60405180910390f35b6103ed610936565b6040516103fa9190611748565b60405180910390f35b61041d60048036038101906104189190611985565b6109c8565b005b61043960048036038101906104349190611a81565b610a2b565b005b61045560048036038101906104509190611808565b610ad6565b6040516104629190611863565b60405180910390f35b61048560048036038101906104809190611b24565b610af9565b005b61048f610c88565b60405161049c919061188d565b60405180910390f35b6104bf60048036038101906104ba9190611985565b610c8d565b6040516104cc9190611863565b60405180910390f35b6104ef60048036038101906104ea9190611b71565b610cad565b6040516104fc919061188d565b60405180910390f35b61051f600480360381019061051a9190611985565b610d34565b005b61053b60048036038101906105369190611985565b610d97565b005b610545610e1d565b604051610552919061188d565b60405180910390f35b60606003805461056a90611be0565b80601f016020809104026020016040519081016040528092919081815260200182805461059690611be0565b80156105e35780601f106105b8576101008083540402835291602001916105e3565b820191906000526020600020905b8154815290600101906020018083116105c657829003601f168201915b5050505050905090565b6000806105f8610e22565b9050610605818585610e2a565b600191505092915050565b6000600254905090565b600381565b600281565b60008061062f610e22565b905061063c858285610e3c565b610647858585610ed1565b60019150509392505050565b60006012905090565b6a084595161401484a00000081565b60007f0000000000000000000000000000000000000000000000000000000000000000905090565b6801158e460913d0000081565b6106a861090c565b73ffffffffffffffffffffffffffffffffffffffff163373ffffffffffffffffffffffffffffffffffffffff161415801561072d5750600660003373ffffffffffffffffffffffffffffffffffffffff1673ffffffffffffffffffffffffffffffffffffffff16815260200190815260200160002060009054906101000a900460ff16155b15610764576040517fea8e4eb500000000000000000000000000000000000000000000000000000000815260040160405180910390fd5b61076e8383610fc5565b8273ffffffffffffffffffffffffffffffffffffffff167f291e8ba3c0f4b0bd86e6e2346fcee1e7ca0975b1cc1886bfbc722d34f3f24d9183836040516107b6929190611c11565b60405180910390a2505050565b600a81565b60008060008373ffffffffffffffffffffffffffffffffffffffff1673ffffffffffffffffffffffffffffffffffffffff168152602001908152602001600020549050919050565b610818611047565b61082260006110ce565b565b6801158e460913d00000821015610867576040517f2fcd1a0f00000000000000000000000000000000000000000000000000000000815260040160405180910390fd5b81610871336107c8565b10156108a9576040517ff4d678b800000000000000000000000000000000000000000000000000000000815260040160405180910390fd5b6108b33383611194565b3373ffffffffffffffffffffffffffffffffffffffff167ff3a670cd3af7d64b488926880889d08a8585a138ff455227af6737339a1ec26283836040516108fb929190611c11565b60405180910390a25050565b600581565b6000600560009054906101000a900473ffffffffffffffffffffffffffffffffffffffff16905090565b60606004805461094590611be0565b80601f016020809104026020016040519081016040528092919081815260200182805461097190611be0565b80156109be5780601f10610993576101008083540402835291602001916109be565b820191906000526020600020905b8154815290600101906020018083116109a157829003601f168201915b5050505050905090565b6109d0611047565b6001600660008373ffffffffffffffffffffffffffffffffffffffff1673ffffffffffffffffffffffffffffffffffffffff16815260200190815260200160002060006101000a81548160ff02191690831515021790555050565b610a33611047565b600082829050905060005b81811015610ad057600160066000868685818110610a5f57610a5e611c3a565b5b9050602002016020810190610a749190611985565b73ffffffffffffffffffffffffffffffffffffffff1673ffffffffffffffffffffffffffffffffffffffff16815260200190815260200160002060006101000a81548160ff021916908315150217905550806001019050610a3e565b50505050565b600080610ae1610e22565b9050610aee818585610ed1565b600191505092915050565b610b0161090c565b73ffffffffffffffffffffffffffffffffffffffff163373ffffffffffffffffffffffffffffffffffffffff1614158015610b865750600660003373ffffffffffffffffffffffffffffffffffffffff1673ffffffffffffffffffffffffffffffffffffffff16815260200190815260200160002060009054906101000a900460ff16155b15610bbd576040517fea8e4eb500000000000000000000000000000000000000000000000000000000815260040160405180910390fd5b600082829050905060005b81811015610c825736848483818110610be457610be3611c3a565b5b9050606002019050610c0c816000016020810190610c029190611985565b8260200135610fc5565b806000016020810190610c1f9190611985565b73ffffffffffffffffffffffffffffffffffffffff167f291e8ba3c0f4b0bd86e6e2346fcee1e7ca0975b1cc1886bfbc722d34f3f24d9182602001358360400135604051610c6e929190611c11565b60405180910390a281600101915050610bc8565b50505050565b600481565b60066020528060005260406000206000915054906101000a900460ff1681565b6000600160008473ffffffffffffffffffffffffffffffffffffffff1673ffffffffffffffffffffffffffffffffffffffff16815260200190815260200160002060008373ffffffffffffffffffffffffffffffffffffffff1673ffffffffffffffffffffffffffffffffffffffff16815260200190815260200160002054905092915050565b610d3c611047565b6000600660008373ffffffffffffffffffffffffffffffffffffffff1673ffffffffffffffffffffffffffffffffffffffff16815260200190815260200160002060006101000a81548160ff02191690831515021790555050565b610d9f611047565b600073ffffffffffffffffffffffffffffffffffffffff168173ffffffffffffffffffffffffffffffffffffffff1603610e115760006040517f1e4fbdf7000000000000000000000000000000000000000000000000000000008152600401610e089190611a01565b60405180910390fd5b610e1a816110ce565b50565b600181565b600033905090565b610e378383836001611216565b505050565b6000610e488484610cad565b90507fffffffffffffffffffffffffffffffffffffffffffffffffffffffffffffffff811015610ecb5781811015610ebb578281836040517ffb8f41b2000000000000000000000000000000000000000000000000000000008152600401610eb293929190611c69565b60405180910390fd5b610eca84848484036000611216565b5b50505050565b600073ffffffffffffffffffffffffffffffffffffffff168373ffffffffffffffffffffffffffffffffffffffff1603610f435760006040517f96c6fd1e000000000000000000000000000000000000000000000000000000008152600401610f3a9190611a01565b60405180910390fd5b600073ffffffffffffffffffffffffffffffffffffffff168273ffffffffffffffffffffffffffffffffffffffff1603610fb55760006040517fec442f05000000000000000000000000000000000000000000000000000000008152600401610fac9190611a01565b60405180910390fd5b610fc08383836113ed565b505050565b600073ffffffffffffffffffffffffffffffffffffffff168273ffffffffffffffffffffffffffffffffffffffff16036110375760006040517fec442f0500000000000000000000000000000000000000000000000000000000815260040161102e9190611a01565b60405180910390fd5b611043600083836113ed565b5050565b61104f610e22565b73ffffffffffffffffffffffffffffffffffffffff1661106d61090c565b73ffffffffffffffffffffffffffffffffffffffff16146110cc57611090610e22565b6040517f118cdaa70000000000000000000000000000000000000000000000000000000081526004016110c39190611a01565b60405180910390fd5b565b6000600560009054906101000a900473ffffffffffffffffffffffffffffffffffffffff16905081600560006101000a81548173ffffffffffffffffffffffffffffffffffffffff021916908373ffffffffffffffffffffffffffffffffffffffff1602179055508173ffffffffffffffffffffffffffffffffffffffff168173ffffffffffffffffffffffffffffffffffffffff167f8be0079c531659141344cd1fd0a4f28419497f9722a3daafe3b4186f6b6457e060405160405180910390a35050565b600073ffffffffffffffffffffffffffffffffffffffff168273ffffffffffffffffffffffffffffffffffffffff16036112065760006040517f96c6fd1e0000000000000000000000000000000000000000000000000000000081526004016111fd9190611a01565b60405180910390fd5b611212826000836113ed565b5050565b600073ffffffffffffffffffffffffffffffffffffffff168473ffffffffffffffffffffffffffffffffffffffff16036112885760006040517fe602df0500000000000000000000000000000000000000000000000000000000815260040161127f9190611a01565b60405180910390fd5b600073ffffffffffffffffffffffffffffffffffffffff168373ffffffffffffffffffffffffffffffffffffffff16036112fa5760006040517f94280d620000000000000000000000000000000000000000000000000000000081526004016112f19190611a01565b60405180910390fd5b81600160008673ffffffffffffffffffffffffffffffffffffffff1673ffffffffffffffffffffffffffffffffffffffff16815260200190815260200160002060008573ffffffffffffffffffffffffffffffffffffffff1673ffffffffffffffffffffffffffffffffffffffff1681526020019081526020016000208190555080156113e7578273ffffffffffffffffffffffffffffffffffffffff168473ffffffffffffffffffffffffffffffffffffffff167f8c5be1e5ebec7d5bd14f71427d1e84f3dd0314c0f7b2291e5b200ac8c7c3b925846040516113de919061188d565b60405180910390a35b50505050565b6113f8838383611493565b600073ffffffffffffffffffffffffffffffffffffffff168373ffffffffffffffffffffffffffffffffffffffff160361148e57600061143661066b565b90506000611442610610565b90508181111561148b5780826040517f9e79f854000000000000000000000000000000000000000000000000000000008152600401611482929190611c11565b60405180910390fd5b50505b505050565b600073ffffffffffffffffffffffffffffffffffffffff168373ffffffffffffffffffffffffffffffffffffffff16036114e55780600260008282546114d99190611ccf565b925050819055506115b8565b60008060008573ffffffffffffffffffffffffffffffffffffffff1673ffffffffffffffffffffffffffffffffffffffff16815260200190815260200160002054905081811015611571578381836040517fe450d38c00000000000000000000000000000000000000000000000000000000815260040161156893929190611c69565b60405180910390fd5b8181036000808673ffffffffffffffffffffffffffffffffffffffff1673ffffffffffffffffffffffffffffffffffffffff16815260200190815260200160002081905550505b600073ffffffffffffffffffffffffffffffffffffffff168273ffffffffffffffffffffffffffffffffffffffff1603611601578060026000828254039250508190555061164e565b806000808473ffffffffffffffffffffffffffffffffffffffff1673ffffffffffffffffffffffffffffffffffffffff168152602001908152602001600020600082825401925050819055505b8173ffffffffffffffffffffffffffffffffffffffff168373ffffffffffffffffffffffffffffffffffffffff167fddf252ad1be2c89b69c2b068fc378daa952ba7f163c4a11628f55a4df523b3ef836040516116ab919061188d565b60405180910390a3505050565b600081519050919050565b600082825260208201905092915050565b60005b838110156116f25780820151818401526020810190506116d7565b60008484015250505050565b6000601f19601f8301169050919050565b600061171a826116b8565b61172481856116c3565b93506117348185602086016116d4565b61173d816116fe565b840191505092915050565b60006020820190508181036000830152611762818461170f565b905092915050565b600080fd5b600080fd5b600073ffffffffffffffffffffffffffffffffffffffff82169050919050565b600061179f82611774565b9050919050565b6117af81611794565b81146117ba57600080fd5b50565b6000813590506117cc816117a6565b92915050565b6000819050919050565b6117e5816117d2565b81146117f057600080fd5b50565b600081359050611802816117dc565b92915050565b6000806040838503121561181f5761181e61176a565b5b600061182d858286016117bd565b925050602061183e858286016117f3565b9150509250929050565b60008115159050919050565b61185d81611848565b82525050565b60006020820190506118786000830184611854565b92915050565b611887816117d2565b82525050565b60006020820190506118a2600083018461187e565b92915050565b6000806000606084860312156118c1576118c061176a565b5b60006118cf868287016117bd565b93505060206118e0868287016117bd565b92505060406118f1868287016117f3565b9150509250925092565b600060ff82169050919050565b611911816118fb565b82525050565b600060208201905061192c6000830184611908565b92915050565b60008060006060848603121561194b5761194a61176a565b5b6000611959868287016117bd565b935050602061196a868287016117f3565b925050604061197b868287016117f3565b9150509250925092565b60006020828403121561199b5761199a61176a565b5b60006119a9848285016117bd565b91505092915050565b600080604083850312156119c9576119c861176a565b5b60006119d7858286016117f3565b92505060206119e8858286016117f3565b9150509250929050565b6119fb81611794565b82525050565b6000602082019050611a1660008301846119f2565b92915050565b600080fd5b600080fd5b600080fd5b60008083601f840112611a4157611a40611a1c565b5b8235905067ffffffffffffffff811115611a5e57611a5d611a21565b5b602083019150836020820283011115611a7a57611a79611a26565b5b9250929050565b60008060208385031215611a9857611a9761176a565b5b600083013567ffffffffffffffff811115611ab657611ab561176f565b5b611ac285828601611a2b565b92509250509250929050565b60008083601f840112611ae457611ae3611a1c565b5b8235905067ffffffffffffffff811115611b0157611b00611a21565b5b602083019150836060820283011115611b1d57611b1c611a26565b5b9250929050565b60008060208385031215611b3b57611b3a61176a565b5b600083013567ffffffffffffffff811115611b5957611b5861176f565b5b611b6585828601611ace565b92509250509250929050565b60008060408385031215611b8857611b8761176a565b5b6000611b96858286016117bd565b9250506020611ba7858286016117bd565b9150509250929050565b7f4e487b7100000000000000000000000000000000000000000000000000000000600052602260045260246000fd5b60006002820490506001821680611bf857607f821691505b602082108103611c0b57611c0a611bb1565b5b50919050565b6000604082019050611c26600083018561187e565b611c33602083018461187e565b9392505050565b7f4e487b7100000000000000000000000000000000000000000000000000000000600052603260045260246000fd5b6000606082019050611c7e60008301866119f2565b611c8b602083018561187e565b611c98604083018461187e565b949350505050565b7f4e487b7100000000000000000000000000000000000000000000000000000000600052601160045260246000fd5b6000611cda826117d2565b9150611ce5836117d2565b9250828201905080821115611cfd57611cfc611ca0565b5b9291505056fea26469706673582212204dfb52dd506fa36e56402e78e4981afab51b45aa151ecefb59bf39ac445d852c64736f6c63430008180033",
  "linkReferences": {},
  "deployedLinkReferences": {}
}