{
  "_format": "hh-sol-artifact-1",
  "contractName": "TUTToken",
  "sourceName": "contracts/TUTToken.sol",
  "abi": [
    {
      "inputs": [],
      "stateMutability": "nonpayable",
      "type": "constructor"
    },
    {
      "inputs": [
        {
          "internalType": "uint256",
          "name": "increasedSupply",
          "type": "uint256"
        },
        {
          "internalType": "uint256",
          "name": "cap",
          "type": "uint256"
        }
      ],
      "name": "ERC20ExceededCap",
      "type": "error"
    },
    {
      "inputs": [
        {
          "internalType": "address",
          "name": "spender",
          "type": "address"
        },
        {
          "internalType": "uint256",
          "name": "allowance",
          "type": "uint256"
        },
        {
          "internalType": "uint256",
          "name": "needed",
          "type": "uint256"
        }
      ],
      "name": "ERC20InsufficientAllowance",
      "type": "error"
    },
    {
      "inputs": [
        {
          "internalType": "address",
          "name": "sender",
          "type": "address"
        },
        {
          "internalType": "uint256",
          "name": "balance",
          "type": "uint256"
        },
        {
          "internalType": "uint256",
          "name": "needed",
          "type": "uint256"
        }
      ],
      "name": "ERC20InsufficientBalance",
      "type": "error"
    },
    {
      "inputs": [
        {
          "internalType": "address",
          "name": "approver",
          "type": "address"
        }
      ],
      "name": "ERC20InvalidApprover",
      "type": "error"
    },
    {
      "inputs": [
        {
          "internalType": "uint256",
          "name": "cap",
          "type": "uint256"
        }
      ],
      "name": "ERC20InvalidCap",
      "type": "error"
    },
    {
      "inputs": [
        {
          "internalType": "address",
          "name": "receiver",
          "type": "address"
        }
      ],
      "name": "ERC20InvalidReceiver",
      "type": "error"
    },
    {
      "inputs": [
        {
          "internalType": "address",
          "name": "sender",
          "type": "address"
        }
      ],
      "name": "ERC20InvalidSender",
      "type": "error"
    },
    {
      "inputs": [
        {
          "internalType": "address",
          "name": "spender",
          "type": "address"
        }
      ],
      "name": "ERC20InvalidSpender",
      "type": "error"
    },
    {
      "inputs": [
        {
          "internalType": "address",
          "name": "owner",
          "type": "address"
        }
      ],
      "name": "OwnableInvalidOwner",
      "type": "error"
    },
    {
      "inputs": [
        {
          "internalType": "address",
          "name": "account",
          "type": "address"
        }
      ],
      "name": "OwnableUnauthorizedAccount",
      "type": "error"
    },
    {
      "anonymous": false,
      "inputs": [
        {
          "indexed": true,
          "internalType": "address",
          "name": "owner",
          "type": "address"
        },
        {
          "indexed": true,
          "internalType": "address",
          "name": "spender",
          "type": "address"
        },
        {
          "indexed": false,
          "internalType": "uint256",
          "name": "value",
          "type": "uint256"
        }
      ],
      "name": "Approval",
      "type": "event"
    },
    {
      "anonymous": false,
      "inputs": [
        {
          "indexed": true,
          "internalType": "address",
          "name": "previousOwner",
          "type": "address"
        },
        {
          "indexed": true,
          "internalType": "address",
          "name": "newOwner",
          "type": "address"
        }
      ],
      "name": "OwnershipTransferred",
      "type": "event"
    },
    {
      "anonymous": false,
      "inputs": [
        {
          "indexed": true,
          "internalType": "address",
          "name": "from",
          "type": "address"
        },
        {
          "indexed": false,
          "internalType": "uint256",
          "name": "amount",
          "type": "uint256"
        },
        {
          "indexed": false,
          "internalType": "string",
          "name": "reason",
          "type": "string"
        }
      ],
      "name": "Redeemed",
      "type": "event"
    },
    {
      "anonymous": false,
      "inputs": [
        {
          "indexed": true,
          "internalType": "address",
          "name": "to",
          "type": "address"
        },
        {
          "indexed": false,
          "internalType": "uint256",
          "name": "amount",
          "type": "uint256"
        },
        {
          "indexed": false,
          "internalType": "string",
          "name": "reason",
          "type": "string"
        }
      ],
      "name": "Rewarded",
      "type": "event"
    },
    {
      "anonymous": false,
      "inputs": [
        {
          "indexed": true,
          "internalType": "address",
          "name": "from",
          "type": "address"
        },
        {
          "indexed": true,
          "internalType": "address",
          "name": "to",
          "type": "address"
        },
        {
          "indexed": false,
          "internalType": "uint256",
          "name": "value",
          "type": "uint256"
        }
      ],
      "name": "Transfer",
      "type": "event"
    },
    {
      "inputs": [],
      "name": "MAX_SUPPLY",
      "outputs": [
        {
          "internalType": "uint256",
          "name": "",
          "type": "uint256"
        }
      ],
      "stateMutability": "view",
      "type": "function"
    },
    {
      "inputs": [],
      "name": "MIN_REDEEM_AMOUNT",
      "outputs": [
        {
          "internalType": "uint256",
          "name": "",
          "type": "uint256"
        }
      ],
      "stateMutability": "view",
      "type": "function"
    },
    {
      "inputs": [
        {
          "internalType": "address",
          "name": "contractAddress",
          "type": "address"
        }
      ],
      "name": "addAuthorizedContract",
      "outputs": [],
      "stateMutability": "nonpayable",
      "type": "function"
    },
    {
      "inputs": [
        {
          "internalType": "address",
          "name": "owner",
          "type": "address"
        },
        {
          "internalType": "address",
          "name": "spender",
          "type": "address"
        }
      ],
      "name": "allowance",
      "outputs": [
        {
          "internalType": "uint256",
          "name": "",
          "type": "uint256"
        }
      ],
      "stateMutability": "view",
      "type": "function"
    },
    {
      "inputs": [
        {
          "internalType": "address",
          "name": "spender",
          "type": "address"
        },
        {
          "internalType": "uint256",
          "name": "value",
          "type": "uint256"
        }
      ],
      "name": "approve",
      "outputs": [
        {
          "internalType": "bool",
          "name": "",
          "type": "bool"
        }
      ],
      "stateMutability": "nonpayable",
      "type": "function"
    },
    {
      "inputs": [
        {
          "internalType": "address",
          "name": "",
          "type": "address"
        }
      ],
      "name": "authorizedContracts",
      "outputs": [
        {
          "internalType": "bool",
          "name": "",
          "type": "bool"
        }
      ],
      "stateMutability": "view",
      "type": "function"
    },
    {
      "inputs": [
        {
          "internalType": "address",
          "name": "account",
          "type": "address"
        }
      ],
      "name": "balanceOf",
      "outputs": [
        {
          "internalType": "uint256",
          "name": "",
          "type": "uint256"
        }
      ],
      "stateMutability": "view",
      "type": "function"
    },
    {
      "inputs": [],
      "name": "cap",
      "outputs": [
        {
          "internalType": "uint256",
          "name": "",
          "type": "uint256"
        }
      ],
      "stateMutability": "view",
      "type": "function"
    },
    {
      "inputs": [],
      "name": "decimals",
      "outputs": [
        {
          "internalType": "uint8",
          "name": "",
          "type": "uint8"
        }
      ],
      "stateMutability": "view",
      "type": "function"
    },
    {
      "inputs": [],
      "name": "name",
      "outputs": [
        {
          "internalType": "string",
          "name": "",
          "type": "string"
        }
      ],
      "stateMutability": "view",
      "type": "function"
    },
    {
      "inputs": [],
      "name": "owner",
      "outputs": [
        {
          "internalType": "address",
          "name": "",
          "type": "address"
        }
      ],
      "stateMutability": "view",
      "type": "function"
    },
    {
      "inputs": [
        {
          "internalType": "uint256",
          "name": "amount",
          "type": "uint256"
        },
        {
          "internalType": "string",
          "name": "reason",
          "type": "string"
        }
      ],
      "name": "redeem",
      "outputs": [],
      "stateMutability": "nonpayable",
      "type": "function"
    },
    {
      "inputs": [
        {
          "internalType": "address",
          "name": "contractAddress",
          "type": "address"
        }
      ],
      "name": "removeAuthorizedContract",
      "outputs": [],
      "stateMutability": "nonpayable",
      "type": "function"
    },
    {
      "inputs": [],
      "name": "renounceOwnership",
      "outputs": [],
      "stateMutability": "nonpayable",
      "type": "function"
    },
    {
      "inputs": [
        {
          "internalType": "address",
          "name": "recipient",
          "type": "address"
        },
        {
          "internalType": "uint256",
          "name": "amount",
          "type": "uint256"
        },
        {
          "internalType": "string",
          "name": "reason",
          "type": "string"
        }
      ],
      "name": "reward",
      "outputs": [],
      "stateMutability": "nonpayable",
      "type": "function"
    },
    {
      "inputs": [],
      "name": "symbol",
      "outputs": [
        {
          "internalType": "string",
          "name": "",
          "type": "string"
        }
      ],
      "stateMutability": "view",
      "type": "function"
    },
    {
      "inputs": [],
      "name": "totalSupply",
      "outputs": [
        {
          "internalType": "uint256",
          "name": "",
          "type": "uint256"
        }
      ],
      "stateMutability": "view",
      "type": "function"
    },
    {
      "inputs": [
        {
          "internalType": "address",
          "name": "to",
          "type": "address"
        },
        {
          "internalType": "uint256",
          "name": "value",
          "type": "uint256"
        }
      ],
      "name": "transfer",
      "outputs": [
        {
          "internalType": "bool",
          "name": "",
          "type": "bool"
        }
      ],
      "stateMutability": "nonpayable",
      "type": "function"
    },
    {
      "inputs": [
        {
          "internalType": "address",
          "name": "from",
          "type": "address"
        },
        {
          "internalType": "address",
          "name": "to",
          "type": "address"
        },
        {
          "internalType": "uint256",
          "name": "value",
          "type": "uint256"
        }
      ],
      "name": "transferFrom",
      "outputs": [
        {
          "internalType": "bool",
          "name": "",
          "type": "bool"
        }
      ],
      "stateMutability": "nonpayable",
      "type": "function"
    },
    {
      "inputs": [
        {
          "internalType": "address",
          "name": "newOwner",
          "type": "address"
        }
      ],
      "name": "transferOwnership",
      "outputs": [],
      "stateMutability": "nonpayable",
      "type": "function"
    }
  ],
  "bytecode": "0x60a06040523480156200001157600080fd5b50336a084595161401484a0000006040518060400160405280601581526020017f546f7572617468205574696c69747920546f6b656e00000000000000000000008152506040518060400160405280600381526020017f545554000000000000000000000000000000000000000000000000000000000081525081600390816200009c9190620004d0565b508060049081620000ae9190620004d0565b50505060008103620000fa5760006040517f392e1e27000000000000000000000000000000000000000000000000000000008152600401620000f19190620005fa565b60405180910390fd5b806080818152505050600073ffffffffffffffffffffffffffffffffffffffff168173ffffffffffffffffffffffffffffffffffffffff1603620001785760006040517f1e4fbdf70000000000000000000000000000000000000000000000000000000081526004016200016f91906200065c565b60405180910390fd5b62000189816200019060201b60201c565b5062000679565b6000600560009054906101000a900473ffffffffffffffffffffffffffffffffffffffff16905081600560006101000a81548173ffffffffffffffffffffffffffffffffffffffff021916908373ffffffffffffffffffffffffffffffffffffffff1602179055508173ffffffffffffffffffffffffffffffffffffffff168173ffffffffffffffffffffffffffffffffffffffff167f8be0079c531659141344cd1fd0a4f28419497f9722a3daafe3b4186f6b6457e060405160405180910390a35050565b600081519050919050565b7f4e487b7100000000000000000000000000000000000000000000000000000000600052604160045260246000fd5b7f4e487b7100000000000000000000000000000000000000000000000000000000600052602260045260246000fd5b60006002820490506001821680620002d857607f821691505b602082108103620002ee57620002ed62000290565b5b50919050565b60008190508160005260206000209050919050565b60006020601f8301049050919050565b600082821b905092915050565b600060088302620003587fffffffffffffffffffffffffffffffffffffffffffffffffffffffffffffffff8262000319565b62000364868362000319565b95508019841693508086168417925050509392505050565b6000819050919050565b6000819050919050565b6000620003b1620003ab620003a5846200037c565b62000386565b6200037c565b9050919050565b6000819050919050565b620003cd8362000390565b620003e5620003dc82620003b8565b84845462000326565b825550505050565b600090565b620003fc620003ed565b62000409818484620003c2565b505050565b5b81811015620004315762000425600082620003f2565b6001810190506200040f565b5050565b601f82111562000480576200044a81620002f4565b620004558462000309565b8101602085101562000465578190505b6200047d620004748562000309565b8301826200040e565b50505b505050565b600082821c905092915050565b6000620004a56000198460080262000485565b1980831691505092915050565b6000620004c0838362000492565b9150826002028217905092915050565b620004db8262000256565b67ffffffffffffffff811115620004f757620004f662000261565b5b620005038254620002bf565b6200051082828562000435565b600060209050601f83116001811462000548576000841562000533578287015190505b6200053f8582620004b2565b865550620005af565b601f1984166200055886620002f4565b60005b8281101562000582578489015182556001820191506020850194506020810190506200055b565b86831015620005a257848901516200059e601f89168262000492565b8355505b6001600288020188555050505b505050505050565b6000819050919050565b6000620005e2620005dc620005d684620005b7565b62000386565b6200037c565b9050919050565b620005f481620005c1565b82525050565b6000602082019050620006116000830184620005e9565b92915050565b600073ffffffffffffffffffffffffffffffffffffffff82169050919050565b6000620006448262000617565b9050919050565b620006568162000637565b82525050565b60006020820190506200067360008301846200064b565b92915050565b608051611a4e6200069560003960006105d90152611a4e6000f3fe608060405234801561001057600080fd5b506004361061012c5760003560e01c806370a08231116100ad578063a9059cbb11610071578063a9059cbb1461030f578063d5b9221b1461033f578063dd62ed3e1461036f578063e6b165ed1461039f578063f2fde38b146103bb5761012c565b806370a082311461027d578063715018a6146102ad5780638da5cb5b146102b757806395d89b41146102d557806398eaa4a7146102f35761012c565b8063313ce567116100f4578063313ce567146101e957806332cb6b0c14610207578063355274ea1461022557806342cd746b146102435780635c102782146102615761012c565b806306fdde0314610131578063095ea7b31461014f57806318160ddd1461017f57806323b872dd1461019d57806324b76fd5146101cd575b600080fd5b6101396103d7565b6040516101469190611389565b60405180910390f35b61016960048036038101906101649190611449565b610469565b60405161017691906114a4565b60405180910390f35b61018761048c565b60405161019491906114ce565b60405180910390f35b6101b760048036038101906101b291906114e9565b610496565b6040516101c491906114a4565b60405180910390f35b6101e760048036038101906101e291906115a1565b6104c5565b005b6101f16105bd565b6040516101fe919061161d565b60405180910390f35b61020f6105c6565b60405161021c91906114ce565b60405180910390f35b61022d6105d5565b60405161023a91906114ce565b60405180910390f35b61024b6105fd565b60405161025891906114ce565b60405180910390f35b61027b60048036038101906102769190611638565b61060a565b005b610297600480360381019061029291906116ac565b610735565b6040516102a491906114ce565b60405180910390f35b6102b561077d565b005b6102bf610791565b6040516102cc91906116e8565b60405180910390f35b6102dd6107bb565b6040516102ea9190611389565b60405180910390f35b61030d600480360381019061030891906116ac565b61084d565b005b61032960048036038101906103249190611449565b6108b0565b60405161033691906114a4565b60405180910390f35b610359600480360381019061035491906116ac565b6108d3565b60405161036691906114a4565b60405180910390f35b61038960048036038101906103849190611703565b6108f3565b60405161039691906114ce565b60405180910390f35b6103b960048036038101906103b491906116ac565b61097a565b005b6103d560048036038101906103d091906116ac565b6109dd565b005b6060600380546103e690611772565b80601f016020809104026020016040519081016040528092919081815260200182805461041290611772565b801561045f5780601f106104345761010080835404028352916020019161045f565b820191906000526020600020905b81548152906001019060200180831161044257829003601f168201915b5050505050905090565b600080610474610a63565b9050610481818585610a6b565b600191505092915050565b6000600254905090565b6000806104a1610a63565b90506104ae858285610a7d565b6104b9858585610b12565b60019150509392505050565b6801158e460913d00000831015610511576040517f08c379a0000000000000000000000000000000000000000000000000000000008152600401610508906117ef565b60405180910390fd5b8261051b33610735565b101561055c576040517f08c379a00000000000000000000000000000000000000000000000000000000081526004016105539061185b565b60405180910390fd5b6105663384610c06565b3373ffffffffffffffffffffffffffffffffffffffff167f784e131f41825c0f4dedaf1b303cfd417f3603b2e95ed4a0c0bdc2176dbbc3ee8484846040516105b0939291906118b7565b60405180910390a2505050565b60006012905090565b6a084595161401484a00000081565b60007f0000000000000000000000000000000000000000000000000000000000000000905090565b6801158e460913d0000081565b610612610791565b73ffffffffffffffffffffffffffffffffffffffff163373ffffffffffffffffffffffffffffffffffffffff1614806106945750600660003373ffffffffffffffffffffffffffffffffffffffff1673ffffffffffffffffffffffffffffffffffffffff16815260200190815260200160002060009054906101000a900460ff165b6106d3576040517f08c379a00000000000000000000000000000000000000000000000000000000081526004016106ca90611935565b60405180910390fd5b6106dd8484610c88565b8373ffffffffffffffffffffffffffffffffffffffff167f34fbb7b3593c993c1ce483ef30f696d4f6a5749e671661e8260220cbd227a18e848484604051610727939291906118b7565b60405180910390a250505050565b60008060008373ffffffffffffffffffffffffffffffffffffffff1673ffffffffffffffffffffffffffffffffffffffff168152602001908152602001600020549050919050565b610785610d0a565b61078f6000610d91565b565b6000600560009054906101000a900473ffffffffffffffffffffffffffffffffffffffff16905090565b6060600480546107ca90611772565b80601f01602080910402602001604051908101604052809291908181526020018280546107f690611772565b80156108435780601f1061081857610100808354040283529160200191610843565b820191906000526020600020905b81548152906001019060200180831161082657829003601f168201915b5050505050905090565b610855610d0a565b6001600660008373ffffffffffffffffffffffffffffffffffffffff1673ffffffffffffffffffffffffffffffffffffffff16815260200190815260200160002060006101000a81548160ff02191690831515021790555050565b6000806108bb610a63565b90506108c8818585610b12565b600191505092915050565b60066020528060005260406000206000915054906101000a900460ff1681565b6000600160008473ffffffffffffffffffffffffffffffffffffffff1673ffffffffffffffffffffffffffffffffffffffff16815260200190815260200160002060008373ffffffffffffffffffffffffffffffffffffffff1673ffffffffffffffffffffffffffffffffffffffff16815260200190815260200160002054905092915050565b610982610d0a565b6000600660008373ffffffffffffffffffffffffffffffffffffffff1673ffffffffffffffffffffffffffffffffffffffff16815260200190815260200160002060006101000a81548160ff02191690831515021790555050565b6109e5610d0a565b600073ffffffffffffffffffffffffffffffffffffffff168173ffffffffffffffffffffffffffffffffffffffff1603610a575760006040517f1e4fbdf7000000000000000000000000000000000000000000000000000000008152600401610a4e91906116e8565b60405180910390fd5b610a6081610d91565b50565b600033905090565b610a788383836001610e57565b505050565b6000610a8984846108f3565b90507fffffffffffffffffffffffffffffffffffffffffffffffffffffffffffffffff811015610b0c5781811015610afc578281836040517ffb8f41b2000000000000000000000000000000000000000000000000000000008152600401610af393929190611955565b60405180910390fd5b610b0b84848484036000610e57565b5b50505050565b600073ffffffffffffffffffffffffffffffffffffffff168373ffffffffffffffffffffffffffffffffffffffff1603610b845760006040517f96c6fd1e000000000000000000000000000000000000000000000000000000008152600401610b7b91906116e8565b60405180910390fd5b600073ffffffffffffffffffffffffffffffffffffffff168273ffffffffffffffffffffffffffffffffffffffff1603610bf65760006040517fec442f05000000000000000000000000000000000000000000000000000000008152600401610bed91906116e8565b60405180910390fd5b610c0183838361102e565b505050565b600073ffffffffffffffffffffffffffffffffffffffff168273ffffffffffffffffffffffffffffffffffffffff1603610c785760006040517f96c6fd1e000000000000000000000000000000000000000000000000000000008152600401610c6f91906116e8565b60405180910390fd5b610c848260008361102e565b5050565b600073ffffffffffffffffffffffffffffffffffffffff168273ffffffffffffffffffffffffffffffffffffffff1603610cfa5760006040517fec442f05000000000000000000000000000000000000000000000000000000008152600401610cf191906116e8565b60405180910390fd5b610d066000838361102e565b5050565b610d12610a63565b73ffffffffffffffffffffffffffffffffffffffff16610d30610791565b73ffffffffffffffffffffffffffffffffffffffff1614610d8f57610d53610a63565b6040517f118cdaa7000000000000000000000000000000000000000000000000000000008152600401610d8691906116e8565b60405180910390fd5b565b6000600560009054906101000a900473ffffffffffffffffffffffffffffffffffffffff16905081600560006101000a81548173ffffffffffffffffffffffffffffffffffffffff021916908373ffffffffffffffffffffffffffffffffffffffff1602179055508173ffffffffffffffffffffffffffffffffffffffff168173ffffffffffffffffffffffffffffffffffffffff167f8be0079c531659141344cd1fd0a4f28419497f9722a3daafe3b4186f6b6457e060405160405180910390a35050565b600073ffffffffffffffffffffffffffffffffffffffff168473ffffffffffffffffffffffffffffffffffffffff1603610ec95760006040517fe602df05000000000000000000000000000000000000000000000000000000008152600401610ec091906116e8565b60405180910390fd5b600073ffffffffffffffffffffffffffffffffffffffff168373ffffffffffffffffffffffffffffffffffffffff1603610f3b5760006040517f94280d62000000000000000000000000000000000000000000000000000000008152600401610f3291906116e8565b60405180910390fd5b81600160008673ffffffffffffffffffffffffffffffffffffffff1673ffffffffffffffffffffffffffffffffffffffff16815260200190815260200160002060008573ffffffffffffffffffffffffffffffffffffffff1673ffffffffffffffffffffffffffffffffffffffff168152602001908152602001600020819055508015611028578273ffffffffffffffffffffffffffffffffffffffff168473ffffffffffffffffffffffffffffffffffffffff167f8c5be1e5ebec7d5bd14f71427d1e84f3dd0314c0f7b2291e5b200ac8c7c3b9258460405161101f91906114ce565b60405180910390a35b50505050565b6110398383836110d4565b600073ffffffffffffffffffffffffffffffffffffffff168373ffffffffffffffffffffffffffffffffffffffff16036110cf5760006110776105d5565b9050600061108361048c565b9050818111156110cc5780826040517f9e79f8540000000000000000000000000000000000000000000000000000000081526004016110c392919061198c565b60405180910390fd5b50505b505050565b600073ffffffffffffffffffffffffffffffffffffffff168373ffffffffffffffffffffffffffffffffffffffff160361112657806002600082825461111a91906119e4565b925050819055506111f9565b60008060008573ffffffffffffffffffffffffffffffffffffffff1673ffffffffffffffffffffffffffffffffffffffff168152602001908152602001600020549050818110156111b2578381836040517fe450d38c0000000000000000000000000000000000000000000000000000000081526004016111a993929190611955565b60405180910390fd5b8181036000808673ffffffffffffffffffffffffffffffffffffffff1673ffffffffffffffffffffffffffffffffffffffff16815260200190815260200160002081905550505b600073ffffffffffffffffffffffffffffffffffffffff168273ffffffffffffffffffffffffffffffffffffffff1603611242578060026000828254039250508190555061128f565b806000808473ffffffffffffffffffffffffffffffffffffffff1673ffffffffffffffffffffffffffffffffffffffff168152602001908152602001600020600082825401925050819055505b8173ffffffffffffffffffffffffffffffffffffffff168373ffffffffffffffffffffffffffffffffffffffff167fddf252ad1be2c89b69c2b068fc378daa952ba7f163c4a11628f55a4df523b3ef836040516112ec91906114ce565b60405180910390a3505050565b600081519050919050565b600082825260208201905092915050565b60005b83811015611333578082015181840152602081019050611318565b60008484015250505050565b6000601f19601f8301169050919050565b600061135b826112f9565b6113658185611304565b9350611375818560208601611315565b61137e8161133f565b840191505092915050565b600060208201905081810360008301526113a38184611350565b905092915050565b600080fd5b600080fd5b600073ffffffffffffffffffffffffffffffffffffffff82169050919050565b60006113e0826113b5565b9050919050565b6113f0816113d5565b81146113fb57600080fd5b50565b60008135905061140d816113e7565b92915050565b6000819050919050565b61142681611413565b811461143157600080fd5b50565b6000813590506114438161141d565b92915050565b600080604083850312156114605761145f6113ab565b5b600061146e858286016113fe565b925050602061147f85828601611434565b9150509250929050565b60008115159050919050565b61149e81611489565b82525050565b60006020820190506114b96000830184611495565b92915050565b6114c881611413565b82525050565b60006020820190506114e360008301846114bf565b92915050565b600080600060608486031215611502576115016113ab565b5b6000611510868287016113fe565b9350506020611521868287016113fe565b925050604061153286828701611434565b9150509250925092565b600080fd5b600080fd5b600080fd5b60008083601f8401126115615761156061153c565b5b8235905067ffffffffffffffff81111561157e5761157d611541565b5b60208301915083600182028301111561159a57611599611546565b5b9250929050565b6000806000604084860312156115ba576115b96113ab565b5b60006115c886828701611434565b935050602084013567ffffffffffffffff8111156115e9576115e86113b0565b5b6115f58682870161154b565b92509250509250925092565b600060ff82169050919050565b61161781611601565b82525050565b6000602082019050611632600083018461160e565b92915050565b60008060008060608587031215611652576116516113ab565b5b6000611660878288016113fe565b945050602061167187828801611434565b935050604085013567ffffffffffffffff811115611692576116916113b0565b5b61169e8782880161154b565b925092505092959194509250565b6000602082840312156116c2576116c16113ab565b5b60006116d0848285016113fe565b91505092915050565b6116e2816113d5565b82525050565b60006020820190506116fd60008301846116d9565b92915050565b6000806040838503121561171a576117196113ab565b5b6000611728858286016113fe565b9250506020611739858286016113fe565b9150509250929050565b7f4e487b7100000000000000000000000000000000000000000000000000000000600052602260045260246000fd5b6000600282049050600182168061178a57607f821691505b60208210810361179d5761179c611743565b5b50919050565b7f416d6f756e742062656c6f77206d696e696d756d000000000000000000000000600082015250565b60006117d9601483611304565b91506117e4826117a3565b602082019050919050565b60006020820190508181036000830152611808816117cc565b9050919050565b7f496e73756666696369656e742062616c616e6365000000000000000000000000600082015250565b6000611845601483611304565b91506118508261180f565b602082019050919050565b6000602082019050818103600083015261187481611838565b9050919050565b82818337600083830152505050565b60006118968385611304565b93506118a383858461187b565b6118ac8361133f565b840190509392505050565b60006040820190506118cc60008301866114bf565b81810360208301526118df81848661188a565b9050949350505050565b7f4e6f7420617574686f72697a6564000000000000000000000000000000000000600082015250565b600061191f600e83611304565b915061192a826118e9565b602082019050919050565b6000602082019050818103600083015261194e81611912565b9050919050565b600060608201905061196a60008301866116d9565b61197760208301856114bf565b61198460408301846114bf565b949350505050565b60006040820190506119a160008301856114bf565b6119ae60208301846114bf565b9392505050565b7f4e487b7100000000000000000000000000000000000000000000000000000000600052601160045260246000fd5b60006119ef82611413565b91506119fa83611413565b9250828201905080821115611a1257611a116119b5565b5b9291505056fea2646970667358221220c52481e9ff4207536eaf0c06e78125d2daea007c7d8d6fbbf97c43f7f428b04f64736f6c63430008180033",
  "linkReferences": {},
  "deployedLinkReferences": {}
}