{
  "_format": "hh-sol-artifact-1",
  "contractName": "ZeitunaPlatform",
  "sourceName": "contracts/ZeitunaPlatform.sol",
  "abi": [
    {
      "inputs": [
        {
          "internalType": "address",
          "name": "_tut",
          "type": "address"
        },
        {
          "internalType": "address",
          "name": "_tourathWallet",
          "type": "address"
        }
      ],
      "stateMutability": "nonpayable",
      "type": "constructor"
    },
    {
      "anonymous": false,
      "inputs": [
        {
          "indexed": true,
          "internalType": "address",
          "name": "user",
          "type": "address"
        },
        {
          "indexed": false,
          "internalType": "uint256",
          "name": "tutAmount",
          "type": "uint256"
        },
        {
          "indexed": false,
          "internalType": "uint256",
          "name": "discountILS",
          "type": "uint256"
        }
      ],
      "name": "TUTRedeemed",
      "type": "event"
    },
    {
      "anonymous": false,
      "inputs": [
        {
          "indexed": true,
          "internalType": "address",
          "name": "user",
          "type": "address"
        },
        {
          "indexed": false,
          "internalType": "uint256",
          "name": "fiatSpent",
          "type": "uint256"
        },
        {
          "indexed": false,
          "internalType": "uint256",
          "name": "tutRewarded",
          "type": "uint256"
        }
      ],
      "name": "TUTRewarded",
      "type": "event"
    },
    {
      "inputs": [
        {
          "internalType": "address",
          "name": "user",
          "type": "address"
        }
      ],
      "name": "getExchangeRate",
      "outputs": [
        {
          "internalType": "uint256",
          "name": "",
          "type": "uint256"
        }
      ],
      "stateMutability": "view",
      "type": "function"
    },
    {
      "inputs": [
        {
          "internalType": "uint256",
          "name": "amount",
          "type": "uint256"
        }
      ],
      "name": "redeemTUT",
      "outputs": [],
      "stateMutability": "nonpayable",
      "type": "function"
    },
    {
      "inputs": [
        {
          "internalType": "address",
          "name": "user",
          "type": "address"
        },
        {
          "internalType": "uint256",
          "name": "fiatValueILS",
          "type": "uint256"
        }
      ],
      "name": "rewardUser",
      "outputs": [],
      "stateMutability": "nonpayable",
      "type": "function"
    },
    {
      "inputs": [
        {
          "internalType": "address",
          "name": "",
          "type": "address"
        }
      ],
      "name": "totalRedeemed",
      "outputs": [
        {
          "internalType": "uint256",
          "name": "",
          "type": "uint256"
        }
      ],
      "stateMutability": "view",
      "type": "function"
    },
    {
      "inputs": [],
      "name": "tourathWallet",
      "outputs": [
        {
          "internalType": "address",
          "name": "",
          "type": "address"
        }
      ],
      "stateMutability": "view",
      "type": "function"
    },
    {
      "inputs": [],
      "name": "tut",
      "outputs": [
        {
          "internalType": "contract TUTToken",
          "name": "",
          "type": "address"
        }
      ],
      "stateMutability": "view",
      "type": "function"
    }
  ],
  "bytecode": "0x60806040523480156200001157600080fd5b506040516200104e3803806200104e83398181016040528101906200003791906200012a565b816000806101000a81548173ffffffffffffffffffffffffffffffffffffffff021916908373ffffffffffffffffffffffffffffffffffffffff16021790555080600160006101000a81548173ffffffffffffffffffffffffffffffffffffffff021916908373ffffffffffffffffffffffffffffffffffffffff160217905550505062000171565b600080fd5b600073ffffffffffffffffffffffffffffffffffffffff82169050919050565b6000620000f282620000c5565b9050919050565b6200010481620000e5565b81146200011057600080fd5b50565b6000815190506200012481620000f9565b92915050565b60008060408385031215620001445762000143620000c0565b5b6000620001548582860162000113565b9250506020620001678582860162000113565b9150509250929050565b610ecd80620001816000396000f3fe608060405234801561001057600080fd5b50600436106100625760003560e01c8063141f78b11461006757806376327a91146100855780638504561c146100b5578063addfd6a1146100d1578063e4e103dc146100ef578063efb7601d1461010b575b600080fd5b61006f61013b565b60405161007c91906108c1565b60405180910390f35b61009f600480360381019061009a919061091f565b61015f565b6040516100ac9190610965565b60405180910390f35b6100cf60048036038101906100ca91906109ac565b610177565b005b6100d961034c565b6040516100e691906109e8565b60405180910390f35b61010960048036038101906101049190610a03565b610372565b005b6101256004803603810190610120919061091f565b610516565b6040516101329190610965565b60405180910390f35b60008054906101000a900473ffffffffffffffffffffffffffffffffffffffff1681565b60026020528060005260406000206000915090505481565b60008054906101000a900473ffffffffffffffffffffffffffffffffffffffff1673ffffffffffffffffffffffffffffffffffffffff166323b872dd33600160009054906101000a900473ffffffffffffffffffffffffffffffffffffffff16846040518463ffffffff1660e01b81526004016101f693929190610a43565b6020604051808303816000875af1158015610215573d6000803e3d6000fd5b505050506040513d601f19601f820116820180604052508101906102399190610ab2565b610278576040517f08c379a000000000000000000000000000000000000000000000000000000000815260040161026f90610b3c565b60405180910390fd5b600061028333610516565b90506000606482846102959190610b8b565b61029f9190610bfc565b905082600260003373ffffffffffffffffffffffffffffffffffffffff1673ffffffffffffffffffffffffffffffffffffffff16815260200190815260200160002060008282546102f09190610c2d565b925050819055503373ffffffffffffffffffffffffffffffffffffffff167f2493579866e89c6346e7883ea2b8693d6f74a41ffbb110f2aa3eb163c7d7f750848360405161033f929190610c61565b60405180910390a2505050565b600160009054906101000a900473ffffffffffffffffffffffffffffffffffffffff1681565b60006064600a836103839190610b8b565b61038d9190610bfc565b905060008054906101000a900473ffffffffffffffffffffffffffffffffffffffff1673ffffffffffffffffffffffffffffffffffffffff166340c10f198460008054906101000a900473ffffffffffffffffffffffffffffffffffffffff1673ffffffffffffffffffffffffffffffffffffffff1663313ce5676040518163ffffffff1660e01b8152600401602060405180830381865afa158015610437573d6000803e3d6000fd5b505050506040513d601f19601f8201168201806040525081019061045b9190610cc3565b600a6104679190610e23565b846104729190610b8b565b6040518363ffffffff1660e01b815260040161048f929190610e6e565b600060405180830381600087803b1580156104a957600080fd5b505af11580156104bd573d6000803e3d6000fd5b505050508273ffffffffffffffffffffffffffffffffffffffff167f3f7be816375a784b319e5e6e3525014f7c8992a3f285719eef8df28100be322e8383604051610509929190610c61565b60405180910390a2505050565b600080600260008473ffffffffffffffffffffffffffffffffffffffff1673ffffffffffffffffffffffffffffffffffffffff16815260200190815260200160002054905060008054906101000a900473ffffffffffffffffffffffffffffffffffffffff1673ffffffffffffffffffffffffffffffffffffffff1663313ce5676040518163ffffffff1660e01b8152600401602060405180830381865afa1580156105c6573d6000803e3d6000fd5b505050506040513d601f19601f820116820180604052508101906105ea9190610cc3565b600a6105f69190610e23565b600a6106029190610b8b565b811161061257606491505061083d565b60008054906101000a900473ffffffffffffffffffffffffffffffffffffffff1673ffffffffffffffffffffffffffffffffffffffff1663313ce5676040518163ffffffff1660e01b8152600401602060405180830381865afa15801561067d573d6000803e3d6000fd5b505050506040513d601f19601f820116820180604052508101906106a19190610cc3565b600a6106ad9190610e23565b60146106b99190610b8b565b81116106c957607d91505061083d565b60008054906101000a900473ffffffffffffffffffffffffffffffffffffffff1673ffffffffffffffffffffffffffffffffffffffff1663313ce5676040518163ffffffff1660e01b8152600401602060405180830381865afa158015610734573d6000803e3d6000fd5b505050506040513d601f19601f820116820180604052508101906107589190610cc3565b600a6107649190610e23565b60326107709190610b8b565b811161078057609691505061083d565b60008054906101000a900473ffffffffffffffffffffffffffffffffffffffff1673ffffffffffffffffffffffffffffffffffffffff1663313ce5676040518163ffffffff1660e01b8152600401602060405180830381865afa1580156107eb573d6000803e3d6000fd5b505050506040513d601f19601f8201168201806040525081019061080f9190610cc3565b600a61081b9190610e23565b60646108279190610b8b565b81116108375760af91505061083d565b60c89150505b919050565b600073ffffffffffffffffffffffffffffffffffffffff82169050919050565b6000819050919050565b600061088761088261087d84610842565b610862565b610842565b9050919050565b60006108998261086c565b9050919050565b60006108ab8261088e565b9050919050565b6108bb816108a0565b82525050565b60006020820190506108d660008301846108b2565b92915050565b600080fd5b60006108ec82610842565b9050919050565b6108fc816108e1565b811461090757600080fd5b50565b600081359050610919816108f3565b92915050565b600060208284031215610935576109346108dc565b5b60006109438482850161090a565b91505092915050565b6000819050919050565b61095f8161094c565b82525050565b600060208201905061097a6000830184610956565b92915050565b6109898161094c565b811461099457600080fd5b50565b6000813590506109a681610980565b92915050565b6000602082840312156109c2576109c16108dc565b5b60006109d084828501610997565b91505092915050565b6109e2816108e1565b82525050565b60006020820190506109fd60008301846109d9565b92915050565b60008060408385031215610a1a57610a196108dc565b5b6000610a288582860161090a565b9250506020610a3985828601610997565b9150509250929050565b6000606082019050610a5860008301866109d9565b610a6560208301856109d9565b610a726040830184610956565b949350505050565b60008115159050919050565b610a8f81610a7a565b8114610a9a57600080fd5b50565b600081519050610aac81610a86565b92915050565b600060208284031215610ac857610ac76108dc565b5b6000610ad684828501610a9d565b91505092915050565b600082825260208201905092915050565b7f545554207472616e73666572206661696c656400000000000000000000000000600082015250565b6000610b26601383610adf565b9150610b3182610af0565b602082019050919050565b60006020820190508181036000830152610b5581610b19565b9050919050565b7f4e487b7100000000000000000000000000000000000000000000000000000000600052601160045260246000fd5b6000610b968261094c565b9150610ba18361094c565b9250828202610baf8161094c565b91508282048414831517610bc657610bc5610b5c565b5b5092915050565b7f4e487b7100000000000000000000000000000000000000000000000000000000600052601260045260246000fd5b6000610c078261094c565b9150610c128361094c565b925082610c2257610c21610bcd565b5b828204905092915050565b6000610c388261094c565b9150610c438361094c565b9250828201905080821115610c5b57610c5a610b5c565b5b92915050565b6000604082019050610c766000830185610956565b610c836020830184610956565b9392505050565b600060ff82169050919050565b610ca081610c8a565b8114610cab57600080fd5b50565b600081519050610cbd81610c97565b92915050565b600060208284031215610cd957610cd86108dc565b5b6000610ce784828501610cae565b91505092915050565b60008160011c9050919050565b6000808291508390505b6001851115610d4757808604811115610d2357610d22610b5c565b5b6001851615610d325780820291505b8081029050610d4085610cf0565b9450610d07565b94509492505050565b600082610d605760019050610e1c565b81610d6e5760009050610e1c565b8160018114610d845760028114610d8e57610dbd565b6001915050610e1c565b60ff841115610da057610d9f610b5c565b5b8360020a915084821115610db757610db6610b5c565b5b50610e1c565b5060208310610133831016604e8410600b8410161715610df25782820a905083811115610ded57610dec610b5c565b5b610e1c565b610dff8484846001610cfd565b92509050818404811115610e1657610e15610b5c565b5b81810290505b9392505050565b6000610e2e8261094c565b9150610e3983610c8a565b9250610e667fffffffffffffffffffffffffffffffffffffffffffffffffffffffffffffffff8484610d50565b905092915050565b6000604082019050610e8360008301856109d9565b610e906020830184610956565b939250505056fea264697066735822122009e5d6c4bd487d3085882d9bb2d7cedfe322c932b1e730719e4499274721ad0f64736f6c63430008140033",
  "linkReferences": {},
  "deployedLinkReferences": {}
}