{
  "_format": "hh-sol-artifact-1",
  "contractName": "ZYTTreeNFT",
  "sourceName": "contracts/ZYTTreeNFT.sol",
  "abi": [
    {
      "inputs": [],
      "stateMutability": "nonpayable",
      "type": "constructor"
    },
    {
      "inputs": [
        {
          "internalType": "address",
          "name": "sender",
          "type": "address"
        },
        {
          "internalType": "uint256",
          "name": "tokenId",
          "type": "uint256"
        },
        {
          "internalType": "address",
          "name": "owner",
          "type": "address"
        }
      ],
      "name": "ERC721IncorrectOwner",
      "type": "error"
    },
    {
      "inputs": [
        {
          "internalType": "address",
          "name": "operator",
          "type": "address"
        },
        {
          "internalType": "uint256",
          "name": "tokenId",
          "type": "uint256"
        }
      ],
      "name": "ERC721InsufficientApproval",
      "type": "error"
    },
    {
      "inputs": [
        {
          "internalType": "address",
          "name": "approver",
          "type": "address"
        }
      ],
      "name": "ERC721InvalidApprover",
      "type": "error"
    },
    {
      "inputs": [
        {
          "internalType": "address",
          "name": "operator",
          "type": "address"
        }
      ],
      "name": "ERC721InvalidOperator",
      "type": "error"
    },
    {
      "inputs": [
        {
          "internalType": "address",
          "name": "owner",
          "type": "address"
        }
      ],
      "name": "ERC721InvalidOwner",
      "type": "error"
    },
    {
      "inputs": [
        {
          "internalType": "address",
          "name": "receiver",
          "type": "address"
        }
      ],
      "name": "ERC721InvalidReceiver",
      "type": "error"
    },
    {
      "inputs": [
        {
          "internalType": "address",
          "name": "sender",
          "type": "address"
        }
      ],
      "name": "ERC721InvalidSender",
      "type": "error"
    },
    {
      "inputs": [
        {
          "internalType": "uint256",
          "name": "tokenId",
          "type": "uint256"
        }
      ],
      "name": "ERC721NonexistentToken",
      "type": "error"
    },
    {
      "inputs": [
        {
          "internalType": "address",
          "name": "owner",
          "type": "address"
        }
      ],
      "name": "OwnableInvalidOwner",
      "type": "error"
    },
    {
      "inputs": [
        {
          "internalType": "address",
          "name": "account",
          "type": "address"
        }
      ],
      "name": "OwnableUnauthorizedAccount",
      "type": "error"
    },
    {
      "anonymous": false,
      "inputs": [
        {
          "indexed": true,
          "internalType": "uint256",
          "name": "tokenId",
          "type": "uint256"
        },
        {
          "indexed": true,
          "internalType": "address",
          "name": "newOwner",
          "type": "address"
        }
      ],
      "name": "Adopted",
      "type": "event"
    },
    {
      "anonymous": false,
      "inputs": [
        {
          "indexed": true,
          "internalType": "address",
          "name": "owner",
          "type": "address"
        },
        {
          "indexed": true,
          "internalType": "address",
          "name": "approved",
          "type": "address"
        },
        {
          "indexed": true,
          "internalType": "uint256",
          "name": "tokenId",
          "type": "uint256"
        }
      ],
      "name": "Approval",
      "type": "event"
    },
    {
      "anonymous": false,
      "inputs": [
        {
          "indexed": true,
          "internalType": "address",
          "name": "owner",
          "type": "address"
        },
        {
          "indexed": true,
          "internalType": "address",
          "name": "operator",
          "type": "address"
        },
        {
          "indexed": false,
          "internalType": "bool",
          "name": "approved",
          "type": "bool"
        }
      ],
      "name": "ApprovalForAll",
      "type": "event"
    },
    {
      "anonymous": false,
      "inputs": [
        {
          "indexed": true,
          "internalType": "address",
          "name": "previousOwner",
          "type": "address"
        },
        {
          "indexed": true,
          "internalType": "address",
          "name": "newOwner",
          "type": "address"
        }
      ],
      "name": "OwnershipTransferred",
      "type": "event"
    },
    {
      "anonymous": false,
      "inputs": [
        {
          "indexed": true,
          "internalType": "address",
          "name": "from",
          "type": "address"
        },
        {
          "indexed": true,
          "internalType": "address",
          "name": "to",
          "type": "address"
        },
        {
          "indexed": true,
          "internalType": "uint256",
          "name": "tokenId",
          "type": "uint256"
        }
      ],
      "name": "Transfer",
      "type": "event"
    },
    {
      "anonymous": false,
      "inputs": [
        {
          "indexed": true,
          "internalType": "uint256",
          "name": "tokenId",
          "type": "uint256"
        },
        {
          "indexed": true,
          "internalType": "address",
          "name": "previousOwner",
          "type": "address"
        }
      ],
      "name": "Unadopted",
      "type": "event"
    },
    {
      "inputs": [],
      "name": "_owner",
      "outputs": [
        {
          "internalType": "address",
          "name": "",
          "type": "address"
        }
      ],
      "stateMutability": "view",
      "type": "function"
    },
    {
      "inputs": [
        {
          "internalType": "uint256",
          "name": "tokenId",
          "type": "uint256"
        },
        {
          "internalType": "address",
          "name": "newOwner",
          "type": "address"
        }
      ],
      "name": "adopt",
      "outputs": [],
      "stateMutability": "nonpayable",
      "type": "function"
    },
    {
      "inputs": [
        {
          "internalType": "uint256",
          "name": "",
          "type": "uint256"
        }
      ],
      "name": "adoptionTimestamp",
      "outputs": [
        {
          "internalType": "uint256",
          "name": "",
          "type": "uint256"
        }
      ],
      "stateMutability": "view",
      "type": "function"
    },
    {
      "inputs": [
        {
          "internalType": "address",
          "name": "to",
          "type": "address"
        },
        {
          "internalType": "uint256",
          "name": "tokenId",
          "type": "uint256"
        }
      ],
      "name": "approve",
      "outputs": [],
      "stateMutability": "nonpayable",
      "type": "function"
    },
    {
      "inputs": [
        {
          "internalType": "address",
          "name": "owner",
          "type": "address"
        }
      ],
      "name": "balanceOf",
      "outputs": [
        {
          "internalType": "uint256",
          "name": "",
          "type": "uint256"
        }
      ],
      "stateMutability": "view",
      "type": "function"
    },
    {
      "inputs": [
        {
          "internalType": "uint256",
          "name": "tokenId",
          "type": "uint256"
        }
      ],
      "name": "getApproved",
      "outputs": [
        {
          "internalType": "address",
          "name": "",
          "type": "address"
        }
      ],
      "stateMutability": "view",
      "type": "function"
    },
    {
      "inputs": [
        {
          "internalType": "address",
          "name": "owner",
          "type": "address"
        },
        {
          "internalType": "address",
          "name": "operator",
          "type": "address"
        }
      ],
      "name": "isApprovedForAll",
      "outputs": [
        {
          "internalType": "bool",
          "name": "",
          "type": "bool"
        }
      ],
      "stateMutability": "view",
      "type": "function"
    },
    {
      "inputs": [
        {
          "internalType": "address",
          "name": "to",
          "type": "address"
        }
      ],
      "name": "mint",
      "outputs": [],
      "stateMutability": "nonpayable",
      "type": "function"
    },
    {
      "inputs": [],
      "name": "name",
      "outputs": [
        {
          "internalType": "string",
          "name": "",
          "type": "string"
        }
      ],
      "stateMutability": "view",
      "type": "function"
    },
    {
      "inputs": [],
      "name": "owner",
      "outputs": [
        {
          "internalType": "address",
          "name": "",
          "type": "address"
        }
      ],
      "stateMutability": "view",
      "type": "function"
    },
    {
      "inputs": [
        {
          "internalType": "uint256",
          "name": "tokenId",
          "type": "uint256"
        }
      ],
      "name": "ownerOf",
      "outputs": [
        {
          "internalType": "address",
          "name": "",
          "type": "address"
        }
      ],
      "stateMutability": "view",
      "type": "function"
    },
    {
      "inputs": [],
      "name": "renounceOwnership",
      "outputs": [],
      "stateMutability": "nonpayable",
      "type": "function"
    },
    {
      "inputs": [
        {
          "internalType": "address",
          "name": "from",
          "type": "address"
        },
        {
          "internalType": "address",
          "name": "to",
          "type": "address"
        },
        {
          "internalType": "uint256",
          "name": "tokenId",
          "type": "uint256"
        }
      ],
      "name": "safeTransferFrom",
      "outputs": [],
      "stateMutability": "nonpayable",
      "type": "function"
    },
    {
      "inputs": [
        {
          "internalType": "address",
          "name": "from",
          "type": "address"
        },
        {
          "internalType": "address",
          "name": "to",
          "type": "address"
        },
        {
          "internalType": "uint256",
          "name": "tokenId",
          "type": "uint256"
        },
        {
          "internalType": "bytes",
          "name": "data",
          "type": "bytes"
        }
      ],
      "name": "safeTransferFrom",
      "outputs": [],
      "stateMutability": "nonpayable",
      "type": "function"
    },
    {
      "inputs": [
        {
          "internalType": "address",
          "name": "operator",
          "type": "address"
        },
        {
          "internalType": "bool",
          "name": "approved",
          "type": "bool"
        }
      ],
      "name": "setApprovalForAll",
      "outputs": [],
      "stateMutability": "nonpayable",
      "type": "function"
    },
    {
      "inputs": [
        {
          "internalType": "bytes4",
          "name": "interfaceId",
          "type": "bytes4"
        }
      ],
      "name": "supportsInterface",
      "outputs": [
        {
          "internalType": "bool",
          "name": "",
          "type": "bool"
        }
      ],
      "stateMutability": "view",
      "type": "function"
    },
    {
      "inputs": [],
      "name": "symbol",
      "outputs": [
        {
          "internalType": "string",
          "name": "",
          "type": "string"
        }
      ],
      "stateMutability": "view",
      "type": "function"
    },
    {
      "inputs": [
        {
          "internalType": "uint256",
          "name": "tokenId",
          "type": "uint256"
        }
      ],
      "name": "tokenURI",
      "outputs": [
        {
          "internalType": "string",
          "name": "",
          "type": "string"
        }
      ],
      "stateMutability": "view",
      "type": "function"
    },
    {
      "inputs": [
        {
          "internalType": "address",
          "name": "from",
          "type": "address"
        },
        {
          "internalType": "address",
          "name": "to",
          "type": "address"
        },
        {
          "internalType": "uint256",
          "name": "tokenId",
          "type": "uint256"
        }
      ],
      "name": "transferFrom",
      "outputs": [],
      "stateMutability": "nonpayable",
      "type": "function"
    },
    {
      "inputs": [
        {
          "internalType": "address",
          "name": "newOwner",
          "type": "address"
        }
      ],
      "name": "transferOwnership",
      "outputs": [],
      "stateMutability": "nonpayable",
      "type": "function"
    },
    {
      "inputs": [
        {
          "internalType": "uint256",
          "name": "tokenId",
          "type": "uint256"
        }
      ],
      "name": "unadopt",
      "outputs": [],
      "stateMutability": "nonpayable",
      "type": "function"
    }
  ],
  "bytecode": "0x60a06040523480156200001157600080fd5b50336040518060400160405280600c81526020017f5a656974756e61205472656500000000000000000000000000000000000000008152506040518060400160405280600381526020017f5a595400000000000000000000000000000000000000000000000000000000008152508160009081620000909190620004a6565b508060019081620000a29190620004a6565b505050600073ffffffffffffffffffffffffffffffffffffffff168173ffffffffffffffffffffffffffffffffffffffff16036200011a5760006040517f1e4fbdf7000000000000000000000000000000000000000000000000000000008152600401620001119190620005d2565b60405180910390fd5b6200012b816200016660201b60201c565b503373ffffffffffffffffffffffffffffffffffffffff1660808173ffffffffffffffffffffffffffffffffffffffff1681525050620005ef565b6000600660009054906101000a900473ffffffffffffffffffffffffffffffffffffffff16905081600660006101000a81548173ffffffffffffffffffffffffffffffffffffffff021916908373ffffffffffffffffffffffffffffffffffffffff1602179055508173ffffffffffffffffffffffffffffffffffffffff168173ffffffffffffffffffffffffffffffffffffffff167f8be0079c531659141344cd1fd0a4f28419497f9722a3daafe3b4186f6b6457e060405160405180910390a35050565b600081519050919050565b7f4e487b7100000000000000000000000000000000000000000000000000000000600052604160045260246000fd5b7f4e487b7100000000000000000000000000000000000000000000000000000000600052602260045260246000fd5b60006002820490506001821680620002ae57607f821691505b602082108103620002c457620002c362000266565b5b50919050565b60008190508160005260206000209050919050565b60006020601f8301049050919050565b600082821b905092915050565b6000600883026200032e7fffffffffffffffffffffffffffffffffffffffffffffffffffffffffffffffff82620002ef565b6200033a8683620002ef565b95508019841693508086168417925050509392505050565b6000819050919050565b6000819050919050565b600062000387620003816200037b8462000352565b6200035c565b62000352565b9050919050565b6000819050919050565b620003a38362000366565b620003bb620003b2826200038e565b848454620002fc565b825550505050565b600090565b620003d2620003c3565b620003df81848462000398565b505050565b5b818110156200040757620003fb600082620003c8565b600181019050620003e5565b5050565b601f82111562000456576200042081620002ca565b6200042b84620002df565b810160208510156200043b578190505b620004536200044a85620002df565b830182620003e4565b50505b505050565b600082821c905092915050565b60006200047b600019846008026200045b565b1980831691505092915050565b600062000496838362000468565b9150826002028217905092915050565b620004b1826200022c565b67ffffffffffffffff811115620004cd57620004cc62000237565b5b620004d9825462000295565b620004e68282856200040b565b600060209050601f8311600181146200051e576000841562000509578287015190505b62000515858262000488565b86555062000585565b601f1984166200052e86620002ca565b60005b82811015620005585784890151825560018201915060208501945060208101905062000531565b8683101562000578578489015162000574601f89168262000468565b8355505b6001600288020188555050505b505050505050565b600073ffffffffffffffffffffffffffffffffffffffff82169050919050565b6000620005ba826200058d565b9050919050565b620005cc81620005ad565b82525050565b6000602082019050620005e96000830184620005c1565b92915050565b60805161291162000627600039600081816104ee015281816108b301528181610afd01528181610c480152610d5f01526129116000f3fe608060405234801561001057600080fd5b50600436106101375760003560e01c806370a08231116100b8578063a22cb4651161007c578063a22cb46514610338578063b2bdfa7b14610354578063b88d4fde14610372578063c87b56dd1461038e578063e985e9c5146103be578063f2fde38b146103ee57610137565b806370a08231146102a6578063715018a6146102d65780638da5cb5b146102e057806390b84029146102fe57806395d89b411461031a57610137565b806323b872dd116100ff57806323b872dd146101f25780632d28e1ee1461020e57806342842e0e1461023e5780636352211e1461025a5780636a6278421461028a57610137565b806301ffc9a71461013c5780630689093d1461016c57806306fdde0314610188578063081812fc146101a6578063095ea7b3146101d6575b600080fd5b61015660048036038101906101519190611fcc565b61040a565b6040516101639190612014565b60405180910390f35b610186600480360381019061018191906120c3565b6104ec565b005b6101906106a1565b60405161019d9190612193565b60405180910390f35b6101c060048036038101906101bb91906121b5565b610733565b6040516101cd91906121f1565b60405180910390f35b6101f060048036038101906101eb919061220c565b61074f565b005b61020c6004803603810190610207919061224c565b610765565b005b610228600480360381019061022391906121b5565b610867565b60405161023591906122ae565b60405180910390f35b6102586004803603810190610253919061224c565b61087f565b005b610274600480360381019061026f91906121b5565b61089f565b60405161028191906121f1565b60405180910390f35b6102a4600480360381019061029f91906122c9565b6108b1565b005b6102c060048036038101906102bb91906122c9565b610a03565b6040516102cd91906122ae565b60405180910390f35b6102de610abd565b005b6102e8610ad1565b6040516102f591906121f1565b60405180910390f35b610318600480360381019061031391906121b5565b610afb565b005b610322610cb5565b60405161032f9190612193565b60405180910390f35b610352600480360381019061034d9190612322565b610d47565b005b61035c610d5d565b60405161036991906121f1565b60405180910390f35b61038c60048036038101906103879190612497565b610d81565b005b6103a860048036038101906103a391906121b5565b610da6565b6040516103b59190612193565b60405180910390f35b6103d860048036038101906103d3919061251a565b610e0f565b6040516103e59190612014565b60405180910390f35b610408600480360381019061040391906122c9565b610ea3565b005b60007f80ac58cd000000000000000000000000000000000000000000000000000000007bffffffffffffffffffffffffffffffffffffffffffffffffffffffff1916827bffffffffffffffffffffffffffffffffffffffffffffffffffffffff191614806104d557507f5b5e139f000000000000000000000000000000000000000000000000000000007bffffffffffffffffffffffffffffffffffffffffffffffffffffffff1916827bffffffffffffffffffffffffffffffffffffffffffffffffffffffff1916145b806104e557506104e482610f29565b5b9050919050565b7f000000000000000000000000000000000000000000000000000000000000000073ffffffffffffffffffffffffffffffffffffffff163373ffffffffffffffffffffffffffffffffffffffff1614806105785750610549610ad1565b73ffffffffffffffffffffffffffffffffffffffff163373ffffffffffffffffffffffffffffffffffffffff16145b6105b7576040517f08c379a00000000000000000000000000000000000000000000000000000000081526004016105ae906125a6565b60405180910390fd5b600073ffffffffffffffffffffffffffffffffffffffff166105d883610f93565b73ffffffffffffffffffffffffffffffffffffffff160361062e576040517f08c379a000000000000000000000000000000000000000000000000000000000815260040161062590612612565b60405180910390fd5b61064161063a8361089f565b8284610fd0565b4260086000848152602001908152602001600020819055508073ffffffffffffffffffffffffffffffffffffffff16827f01c07ea0ae04d5e8aae2bb4f2d6bf449288c76006383b9ffaed4d85ca8d9a95160405160405180910390a35050565b6060600080546106b090612661565b80601f01602080910402602001604051908101604052809291908181526020018280546106dc90612661565b80156107295780601f106106fe57610100808354040283529160200191610729565b820191906000526020600020905b81548152906001019060200180831161070c57829003601f168201915b5050505050905090565b600061073e8261113d565b50610748826111c5565b9050919050565b610761828261075c611202565b61120a565b5050565b600073ffffffffffffffffffffffffffffffffffffffff168273ffffffffffffffffffffffffffffffffffffffff16036107d75760006040517f64a0ae920000000000000000000000000000000000000000000000000000000081526004016107ce91906121f1565b60405180910390fd5b60006107eb83836107e6611202565b61121c565b90508373ffffffffffffffffffffffffffffffffffffffff168173ffffffffffffffffffffffffffffffffffffffff1614610861578382826040517f64283d7b00000000000000000000000000000000000000000000000000000000815260040161085893929190612692565b60405180910390fd5b50505050565b60086020528060005260406000206000915090505481565b61089a83838360405180602001604052806000815250610d81565b505050565b60006108aa8261113d565b9050919050565b7f000000000000000000000000000000000000000000000000000000000000000073ffffffffffffffffffffffffffffffffffffffff163373ffffffffffffffffffffffffffffffffffffffff16148061093d575061090e610ad1565b73ffffffffffffffffffffffffffffffffffffffff163373ffffffffffffffffffffffffffffffffffffffff16145b61097c576040517f08c379a0000000000000000000000000000000000000000000000000000000008152600401610973906125a6565b60405180910390fd5b6007600081548092919061098f906126f8565b91905055506109a081600754611436565b42600860006007548152602001908152602001600020819055508073ffffffffffffffffffffffffffffffffffffffff166007547f01c07ea0ae04d5e8aae2bb4f2d6bf449288c76006383b9ffaed4d85ca8d9a95160405160405180910390a350565b60008073ffffffffffffffffffffffffffffffffffffffff168273ffffffffffffffffffffffffffffffffffffffff1603610a765760006040517f89c62b64000000000000000000000000000000000000000000000000000000008152600401610a6d91906121f1565b60405180910390fd5b600360008373ffffffffffffffffffffffffffffffffffffffff1673ffffffffffffffffffffffffffffffffffffffff168152602001908152602001600020549050919050565b610ac5611454565b610acf60006114db565b565b6000600660009054906101000a900473ffffffffffffffffffffffffffffffffffffffff16905090565b7f000000000000000000000000000000000000000000000000000000000000000073ffffffffffffffffffffffffffffffffffffffff163373ffffffffffffffffffffffffffffffffffffffff161480610b875750610b58610ad1565b73ffffffffffffffffffffffffffffffffffffffff163373ffffffffffffffffffffffffffffffffffffffff16145b610bc6576040517f08c379a0000000000000000000000000000000000000000000000000000000008152600401610bbd906125a6565b60405180910390fd5b6000610bd18261089f565b9050600073ffffffffffffffffffffffffffffffffffffffff168173ffffffffffffffffffffffffffffffffffffffff1603610c42576040517f08c379a0000000000000000000000000000000000000000000000000000000008152600401610c3990612612565b60405180910390fd5b610c6d817f000000000000000000000000000000000000000000000000000000000000000084610fd0565b8073ffffffffffffffffffffffffffffffffffffffff16827f46e86096d14defbba088a4d914a575c97a6215ea893d62abfb16128c3992ae7460405160405180910390a35050565b606060018054610cc490612661565b80601f0160208091040260200160405190810160405280929190818152602001828054610cf090612661565b8015610d3d5780601f10610d1257610100808354040283529160200191610d3d565b820191906000526020600020905b815481529060010190602001808311610d2057829003601f168201915b5050505050905090565b610d59610d52611202565b83836115a1565b5050565b7f000000000000000000000000000000000000000000000000000000000000000081565b610d8c848484610765565b610da0610d97611202565b85858585611710565b50505050565b6060610db18261113d565b506000610dbc6118c1565b90506000815111610ddc5760405180602001604052806000815250610e07565b80610de6846118d8565b604051602001610df792919061277c565b6040516020818303038152906040525b915050919050565b6000600560008473ffffffffffffffffffffffffffffffffffffffff1673ffffffffffffffffffffffffffffffffffffffff16815260200190815260200160002060008373ffffffffffffffffffffffffffffffffffffffff1673ffffffffffffffffffffffffffffffffffffffff16815260200190815260200160002060009054906101000a900460ff16905092915050565b610eab611454565b600073ffffffffffffffffffffffffffffffffffffffff168173ffffffffffffffffffffffffffffffffffffffff1603610f1d5760006040517f1e4fbdf7000000000000000000000000000000000000000000000000000000008152600401610f1491906121f1565b60405180910390fd5b610f26816114db565b50565b60007f01ffc9a7000000000000000000000000000000000000000000000000000000007bffffffffffffffffffffffffffffffffffffffffffffffffffffffff1916827bffffffffffffffffffffffffffffffffffffffffffffffffffffffff1916149050919050565b60006002600083815260200190815260200160002060009054906101000a900473ffffffffffffffffffffffffffffffffffffffff169050919050565b600073ffffffffffffffffffffffffffffffffffffffff168273ffffffffffffffffffffffffffffffffffffffff16036110425760006040517f64a0ae9200000000000000000000000000000000000000000000000000000000815260040161103991906121f1565b60405180910390fd5b60006110508383600061121c565b9050600073ffffffffffffffffffffffffffffffffffffffff168173ffffffffffffffffffffffffffffffffffffffff16036110c357816040517f7e2732890000000000000000000000000000000000000000000000000000000081526004016110ba91906122ae565b60405180910390fd5b8373ffffffffffffffffffffffffffffffffffffffff168173ffffffffffffffffffffffffffffffffffffffff1614611137578382826040517f64283d7b00000000000000000000000000000000000000000000000000000000815260040161112e93929190612692565b60405180910390fd5b50505050565b60008061114983610f93565b9050600073ffffffffffffffffffffffffffffffffffffffff168173ffffffffffffffffffffffffffffffffffffffff16036111bc57826040517f7e2732890000000000000000000000000000000000000000000000000000000081526004016111b391906122ae565b60405180910390fd5b80915050919050565b60006004600083815260200190815260200160002060009054906101000a900473ffffffffffffffffffffffffffffffffffffffff169050919050565b600033905090565b61121783838360016119a6565b505050565b60008061122884610f93565b9050600073ffffffffffffffffffffffffffffffffffffffff168373ffffffffffffffffffffffffffffffffffffffff161461126a57611269818486611b6b565b5b600073ffffffffffffffffffffffffffffffffffffffff168173ffffffffffffffffffffffffffffffffffffffff16146112fb576112ac6000856000806119a6565b6001600360008373ffffffffffffffffffffffffffffffffffffffff1673ffffffffffffffffffffffffffffffffffffffff168152602001908152602001600020600082825403925050819055505b600073ffffffffffffffffffffffffffffffffffffffff168573ffffffffffffffffffffffffffffffffffffffff161461137e576001600360008773ffffffffffffffffffffffffffffffffffffffff1673ffffffffffffffffffffffffffffffffffffffff168152602001908152602001600020600082825401925050819055505b846002600086815260200190815260200160002060006101000a81548173ffffffffffffffffffffffffffffffffffffffff021916908373ffffffffffffffffffffffffffffffffffffffff160217905550838573ffffffffffffffffffffffffffffffffffffffff168273ffffffffffffffffffffffffffffffffffffffff167fddf252ad1be2c89b69c2b068fc378daa952ba7f163c4a11628f55a4df523b3ef60405160405180910390a4809150509392505050565b611450828260405180602001604052806000815250611c2f565b5050565b61145c611202565b73ffffffffffffffffffffffffffffffffffffffff1661147a610ad1565b73ffffffffffffffffffffffffffffffffffffffff16146114d95761149d611202565b6040517f118cdaa70000000000000000000000000000000000000000000000000000000081526004016114d091906121f1565b60405180910390fd5b565b6000600660009054906101000a900473ffffffffffffffffffffffffffffffffffffffff16905081600660006101000a81548173ffffffffffffffffffffffffffffffffffffffff021916908373ffffffffffffffffffffffffffffffffffffffff1602179055508173ffffffffffffffffffffffffffffffffffffffff168173ffffffffffffffffffffffffffffffffffffffff167f8be0079c531659141344cd1fd0a4f28419497f9722a3daafe3b4186f6b6457e060405160405180910390a35050565b600073ffffffffffffffffffffffffffffffffffffffff168273ffffffffffffffffffffffffffffffffffffffff160361161257816040517f5b08ba1800000000000000000000000000000000000000000000000000000000815260040161160991906121f1565b60405180910390fd5b80600560008573ffffffffffffffffffffffffffffffffffffffff1673ffffffffffffffffffffffffffffffffffffffff16815260200190815260200160002060008473ffffffffffffffffffffffffffffffffffffffff1673ffffffffffffffffffffffffffffffffffffffff16815260200190815260200160002060006101000a81548160ff0219169083151502179055508173ffffffffffffffffffffffffffffffffffffffff168373ffffffffffffffffffffffffffffffffffffffff167f17307eab39ab6107e8899845ad3d59bd9653f200f220920489ca2b5937696c31836040516117039190612014565b60405180910390a3505050565b60008373ffffffffffffffffffffffffffffffffffffffff163b11156118ba578273ffffffffffffffffffffffffffffffffffffffff1663150b7a02868685856040518563ffffffff1660e01b815260040161176f94939291906127f5565b6020604051808303816000875af19250505080156117ab57506040513d601f19601f820116820180604052508101906117a89190612856565b60015b61182f573d80600081146117db576040519150601f19603f3d011682016040523d82523d6000602084013e6117e0565b606091505b50600081510361182757836040517f64a0ae9200000000000000000000000000000000000000000000000000000000815260040161181e91906121f1565b60405180910390fd5b805181602001fd5b63150b7a0260e01b7bffffffffffffffffffffffffffffffffffffffffffffffffffffffff1916817bffffffffffffffffffffffffffffffffffffffffffffffffffffffff1916146118b857836040517f64a0ae920000000000000000000000000000000000000000000000000000000081526004016118af91906121f1565b60405180910390fd5b505b5050505050565b606060405180602001604052806000815250905090565b6060600060016118e784611c53565b01905060008167ffffffffffffffff8111156119065761190561236c565b5b6040519080825280601f01601f1916602001820160405280156119385781602001600182028036833780820191505090505b509050600082602001820190505b60011561199b578080600190039150507f3031323334353637383961626364656600000000000000000000000000000000600a86061a8153600a858161198f5761198e612883565b5b04945060008503611946575b819350505050919050565b80806119df5750600073ffffffffffffffffffffffffffffffffffffffff168273ffffffffffffffffffffffffffffffffffffffff1614155b15611b135760006119ef8461113d565b9050600073ffffffffffffffffffffffffffffffffffffffff168373ffffffffffffffffffffffffffffffffffffffff1614158015611a5a57508273ffffffffffffffffffffffffffffffffffffffff168173ffffffffffffffffffffffffffffffffffffffff1614155b8015611a6d5750611a6b8184610e0f565b155b15611aaf57826040517fa9fbf51f000000000000000000000000000000000000000000000000000000008152600401611aa691906121f1565b60405180910390fd5b8115611b1157838573ffffffffffffffffffffffffffffffffffffffff168273ffffffffffffffffffffffffffffffffffffffff167f8c5be1e5ebec7d5bd14f71427d1e84f3dd0314c0f7b2291e5b200ac8c7c3b92560405160405180910390a45b505b836004600085815260200190815260200160002060006101000a81548173ffffffffffffffffffffffffffffffffffffffff021916908373ffffffffffffffffffffffffffffffffffffffff16021790555050505050565b611b76838383611da6565b611c2a57600073ffffffffffffffffffffffffffffffffffffffff168373ffffffffffffffffffffffffffffffffffffffff1603611beb57806040517f7e273289000000000000000000000000000000000000000000000000000000008152600401611be291906122ae565b60405180910390fd5b81816040517f177e802f000000000000000000000000000000000000000000000000000000008152600401611c219291906128b2565b60405180910390fd5b505050565b611c398383611e67565b611c4e611c44611202565b6000858585611710565b505050565b600080600090507a184f03e93ff9f4daa797ed6e38ed64bf6a1f0100000000000000008310611cb1577a184f03e93ff9f4daa797ed6e38ed64bf6a1f0100000000000000008381611ca757611ca6612883565b5b0492506040810190505b6d04ee2d6d415b85acef81000000008310611cee576d04ee2d6d415b85acef81000000008381611ce457611ce3612883565b5b0492506020810190505b662386f26fc100008310611d1d57662386f26fc100008381611d1357611d12612883565b5b0492506010810190505b6305f5e1008310611d46576305f5e1008381611d3c57611d3b612883565b5b0492506008810190505b6127108310611d6b576127108381611d6157611d60612883565b5b0492506004810190505b60648310611d8e5760648381611d8457611d83612883565b5b0492506002810190505b600a8310611d9d576001810190505b80915050919050565b60008073ffffffffffffffffffffffffffffffffffffffff168373ffffffffffffffffffffffffffffffffffffffff1614158015611e5e57508273ffffffffffffffffffffffffffffffffffffffff168473ffffffffffffffffffffffffffffffffffffffff161480611e1f5750611e1e8484610e0f565b5b80611e5d57508273ffffffffffffffffffffffffffffffffffffffff16611e45836111c5565b73ffffffffffffffffffffffffffffffffffffffff16145b5b90509392505050565b600073ffffffffffffffffffffffffffffffffffffffff168273ffffffffffffffffffffffffffffffffffffffff1603611ed95760006040517f64a0ae92000000000000000000000000000000000000000000000000000000008152600401611ed091906121f1565b60405180910390fd5b6000611ee78383600061121c565b9050600073ffffffffffffffffffffffffffffffffffffffff168173ffffffffffffffffffffffffffffffffffffffff1614611f5b5760006040517f73c6ac6e000000000000000000000000000000000000000000000000000000008152600401611f5291906121f1565b60405180910390fd5b505050565b6000604051905090565b600080fd5b600080fd5b60007fffffffff0000000000000000000000000000000000000000000000000000000082169050919050565b611fa981611f74565b8114611fb457600080fd5b50565b600081359050611fc681611fa0565b92915050565b600060208284031215611fe257611fe1611f6a565b5b6000611ff084828501611fb7565b91505092915050565b60008115159050919050565b61200e81611ff9565b82525050565b60006020820190506120296000830184612005565b92915050565b6000819050919050565b6120428161202f565b811461204d57600080fd5b50565b60008135905061205f81612039565b92915050565b600073ffffffffffffffffffffffffffffffffffffffff82169050919050565b600061209082612065565b9050919050565b6120a081612085565b81146120ab57600080fd5b50565b6000813590506120bd81612097565b92915050565b600080604083850312156120da576120d9611f6a565b5b60006120e885828601612050565b92505060206120f9858286016120ae565b9150509250929050565b600081519050919050565b600082825260208201905092915050565b60005b8381101561213d578082015181840152602081019050612122565b60008484015250505050565b6000601f19601f8301169050919050565b600061216582612103565b61216f818561210e565b935061217f81856020860161211f565b61218881612149565b840191505092915050565b600060208201905081810360008301526121ad818461215a565b905092915050565b6000602082840312156121cb576121ca611f6a565b5b60006121d984828501612050565b91505092915050565b6121eb81612085565b82525050565b600060208201905061220660008301846121e2565b92915050565b6000806040838503121561222357612222611f6a565b5b6000612231858286016120ae565b925050602061224285828601612050565b9150509250929050565b60008060006060848603121561226557612264611f6a565b5b6000612273868287016120ae565b9350506020612284868287016120ae565b925050604061229586828701612050565b9150509250925092565b6122a88161202f565b82525050565b60006020820190506122c3600083018461229f565b92915050565b6000602082840312156122df576122de611f6a565b5b60006122ed848285016120ae565b91505092915050565b6122ff81611ff9565b811461230a57600080fd5b50565b60008135905061231c816122f6565b92915050565b6000806040838503121561233957612338611f6a565b5b6000612347858286016120ae565b92505060206123588582860161230d565b9150509250929050565b600080fd5b600080fd5b7f4e487b7100000000000000000000000000000000000000000000000000000000600052604160045260246000fd5b6123a482612149565b810181811067ffffffffffffffff821117156123c3576123c261236c565b5b80604052505050565b60006123d6611f60565b90506123e2828261239b565b919050565b600067ffffffffffffffff8211156124025761240161236c565b5b61240b82612149565b9050602081019050919050565b82818337600083830152505050565b600061243a612435846123e7565b6123cc565b90508281526020810184848401111561245657612455612367565b5b612461848285612418565b509392505050565b600082601f83011261247e5761247d612362565b5b813561248e848260208601612427565b91505092915050565b600080600080608085870312156124b1576124b0611f6a565b5b60006124bf878288016120ae565b94505060206124d0878288016120ae565b93505060406124e187828801612050565b925050606085013567ffffffffffffffff81111561250257612501611f6f565b5b61250e87828801612469565b91505092959194509250565b6000806040838503121561253157612530611f6a565b5b600061253f858286016120ae565b9250506020612550858286016120ae565b9150509250929050565b7f4e6f7420617574686f72697a6564000000000000000000000000000000000000600082015250565b6000612590600e8361210e565b915061259b8261255a565b602082019050919050565b600060208201905081810360008301526125bf81612583565b9050919050565b7f546f6b656e20646f6573206e6f74206578697374000000000000000000000000600082015250565b60006125fc60148361210e565b9150612607826125c6565b602082019050919050565b6000602082019050818103600083015261262b816125ef565b9050919050565b7f4e487b7100000000000000000000000000000000000000000000000000000000600052602260045260246000fd5b6000600282049050600182168061267957607f821691505b60208210810361268c5761268b612632565b5b50919050565b60006060820190506126a760008301866121e2565b6126b4602083018561229f565b6126c160408301846121e2565b949350505050565b7f4e487b7100000000000000000000000000000000000000000000000000000000600052601160045260246000fd5b60006127038261202f565b91507fffffffffffffffffffffffffffffffffffffffffffffffffffffffffffffffff8203612735576127346126c9565b5b600182019050919050565b600081905092915050565b600061275682612103565b6127608185612740565b935061277081856020860161211f565b80840191505092915050565b6000612788828561274b565b9150612794828461274b565b91508190509392505050565b600081519050919050565b600082825260208201905092915050565b60006127c7826127a0565b6127d181856127ab565b93506127e181856020860161211f565b6127ea81612149565b840191505092915050565b600060808201905061280a60008301876121e2565b61281760208301866121e2565b612824604083018561229f565b818103606083015261283681846127bc565b905095945050505050565b60008151905061285081611fa0565b92915050565b60006020828403121561286c5761286b611f6a565b5b600061287a84828501612841565b91505092915050565b7f4e487b7100000000000000000000000000000000000000000000000000000000600052601260045260246000fd5b60006040820190506128c760008301856121e2565b6128d4602083018461229f565b939250505056fea264697066735822122038e51ad84f90284f5e663c38d270d8580e518def4c856861c447621d40fe24a764736f6c63430008180033",
  "linkReferences": {},
  "deployedLinkReferences": {}
}